{
  "_format": "hh-sol-artifact-1",
  "contractName": "CertificateRegistry",
  "sourceName": "contracts/CertificateRegistry.sol",
  "abi": [
    {
      "inputs": [],
      "stateMutability": "nonpayable",
      "type": "constructor"
    },
    {
      "anonymous": false,
      "inputs": [
        {
          "indexed": true,
          "internalType": "uint256",
          "name": "id",
          "type": "uint256"
        },
        {
          "indexed": true,
          "internalType": "address",
          "name": "student",
          "type": "address"
        },
        {
          "indexed": false,
          "internalType": "string",
          "name": "studentName",
          "type": "string"
        },
        {
          "indexed": false,
          "internalType": "string",
          "name": "institution",
          "type": "string"
        },
        {
          "indexed": false,
          "internalType": "string",
          "name": "degree",
          "type": "string"
        },
        {
          "indexed": false,
          "internalType": "uint256",
          "name": "templateId",
          "type": "uint256"
        }
      ],
      "name": "CertificateIssued",
      "type": "event"
    },
    {
      "anonymous": false,
      "inputs": [
        {
          "indexed": true,
          "internalType": "uint256",
          "name": "id",
          "type": "uint256"
        }
      ],
      "name": "CertificateRevoked",
      "type": "event"
    },
    {
      "anonymous": false,
      "inputs": [
        {
          "indexed": true,
          "internalType": "address",
          "name": "issuer",
          "type": "address"
        }
      ],
      "name": "IssuerAuthorized",
      "type": "event"
    },
    {
      "anonymous": false,
      "inputs": [
        {
          "indexed": true,
          "internalType": "address",
          "name": "issuer",
          "type": "address"
        }
      ],
      "name": "IssuerRevoked",
      "type": "event"
    },
    {
      "anonymous": false,
      "inputs": [
        {
          "indexed": true,
          "internalType": "address",
          "name": "previousOwner",
          "type": "address"
        },
        {
          "indexed": true,
          "internalType": "address",
          "name": "newOwner",
          "type": "address"
        }
      ],
      "name": "OwnershipTransferred",
      "type": "event"
    },
    {
      "anonymous": false,
      "inputs": [
        {
          "indexed": true,
          "internalType": "uint256",
          "name": "templateId",
          "type": "uint256"
        },
        {
          "indexed": true,
          "internalType": "address",
          "name": "institution",
          "type": "address"
        },
        {
          "indexed": false,
          "internalType": "string",
          "name": "templateName",
          "type": "string"
        }
      ],
      "name": "TemplateCreated",
      "type": "event"
    },
    {
      "anonymous": false,
      "inputs": [
        {
          "indexed": true,
          "internalType": "uint256",
          "name": "templateId",
          "type": "uint256"
        },
        {
          "indexed": true,
          "internalType": "address",
          "name": "institution",
          "type": "address"
        }
      ],
      "name": "TemplateDeleted",
      "type": "event"
    },
    {
      "anonymous": false,
      "inputs": [
        {
          "indexed": true,
          "internalType": "uint256",
          "name": "templateId",
          "type": "uint256"
        },
        {
          "indexed": true,
          "internalType": "address",
          "name": "institution",
          "type": "address"
        }
      ],
      "name": "TemplateUpdated",
      "type": "event"
    },
    {
      "inputs": [],
      "name": "MAX_TEMPLATES_PER_INSTITUTION",
      "outputs": [
        {
          "internalType": "uint256",
          "name": "",
          "type": "uint256"
        }
      ],
      "stateMutability": "view",
      "type": "function"
    },
    {
      "inputs": [
        {
          "internalType": "address",
          "name": "_issuer",
          "type": "address"
        }
      ],
      "name": "authorizeIssuer",
      "outputs": [],
      "stateMutability": "nonpayable",
      "type": "function"
    },
    {
      "inputs": [
        {
          "internalType": "address",
          "name": "",
          "type": "address"
        }
      ],
      "name": "authorizedIssuers",
      "outputs": [
        {
          "internalType": "bool",
          "name": "",
          "type": "bool"
        }
      ],
      "stateMutability": "view",
      "type": "function"
    },
    {
      "inputs": [
        {
          "internalType": "uint256",
          "name": "",
          "type": "uint256"
        }
      ],
      "name": "certificates",
      "outputs": [
        {
          "internalType": "uint256",
          "name": "id",
          "type": "uint256"
        },
        {
          "internalType": "address",
          "name": "studentAddress",
          "type": "address"
        },
        {
          "internalType": "string",
          "name": "studentName",
          "type": "string"
        },
        {
          "internalType": "string",
          "name": "institution",
          "type": "string"
        },
        {
          "internalType": "string",
          "name": "degree",
          "type": "string"
        },
        {
          "internalType": "string",
          "name": "specialization",
          "type": "string"
        },
        {
          "internalType": "uint256",
          "name": "issueDate",
          "type": "uint256"
        },
        {
          "internalType": "string",
          "name": "ipfsHash",
          "type": "string"
        },
        {
          "internalType": "bool",
          "name": "isRevoked",
          "type": "bool"
        },
        {
          "internalType": "address",
          "name": "issuer",
          "type": "address"
        },
        {
          "internalType": "uint256",
          "name": "templateId",
          "type": "uint256"
        }
      ],
      "stateMutability": "view",
      "type": "function"
    },
    {
      "inputs": [
        {
          "internalType": "string",
          "name": "_templateName",
          "type": "string"
        },
        {
          "internalType": "string",
          "name": "_institutionName",
          "type": "string"
        },
        {
          "internalType": "string",
          "name": "_institutionLogo",
          "type": "string"
        },
        {
          "internalType": "string",
          "name": "_primaryColor",
          "type": "string"
        },
        {
          "internalType": "string",
          "name": "_secondaryColor",
          "type": "string"
        },
        {
          "internalType": "string[]",
          "name": "_degreeTypes",
          "type": "string[]"
        },
        {
          "internalType": "bool",
          "name": "_includeSpecialization",
          "type": "bool"
        },
        {
          "internalType": "bool",
          "name": "_includeGrades",
          "type": "bool"
        }
      ],
      "name": "createTemplate",
      "outputs": [
        {
          "internalType": "uint256",
          "name": "",
          "type": "uint256"
        }
      ],
      "stateMutability": "nonpayable",
      "type": "function"
    },
    {
      "inputs": [
        {
          "internalType": "uint256",
          "name": "_templateId",
          "type": "uint256"
        }
      ],
      "name": "deleteTemplate",
      "outputs": [],
      "stateMutability": "nonpayable",
      "type": "function"
    },
    {
      "inputs": [
        {
          "internalType": "address",
          "name": "_institution",
          "type": "address"
        }
      ],
      "name": "getInstitutionTemplates",
      "outputs": [
        {
          "internalType": "uint256[]",
          "name": "",
          "type": "uint256[]"
        }
      ],
      "stateMutability": "view",
      "type": "function"
    },
    {
      "inputs": [
        {
          "internalType": "address",
          "name": "_student",
          "type": "address"
        }
      ],
      "name": "getStudentCertificates",
      "outputs": [
        {
          "internalType": "uint256[]",
          "name": "",
          "type": "uint256[]"
        }
      ],
      "stateMutability": "view",
      "type": "function"
    },
    {
      "inputs": [
        {
          "internalType": "uint256",
          "name": "_templateId",
          "type": "uint256"
        }
      ],
      "name": "getTemplate",
      "outputs": [
        {
          "internalType": "uint256",
          "name": "id",
          "type": "uint256"
        },
        {
          "internalType": "address",
          "name": "institutionAddress",
          "type": "address"
        },
        {
          "internalType": "string",
          "name": "templateName",
          "type": "string"
        },
        {
          "internalType": "string",
          "name": "institutionName",
          "type": "string"
        },
        {
          "internalType": "string",
          "name": "institutionLogo",
          "type": "string"
        },
        {
          "internalType": "string",
          "name": "primaryColor",
          "type": "string"
        },
        {
          "internalType": "string",
          "name": "secondaryColor",
          "type": "string"
        },
        {
          "internalType": "bool",
          "name": "includeSpecialization",
          "type": "bool"
        },
        {
          "internalType": "bool",
          "name": "includeGrades",
          "type": "bool"
        },
        {
          "internalType": "bool",
          "name": "isActive",
          "type": "bool"
        },
        {
          "internalType": "uint256",
          "name": "createdAt",
          "type": "uint256"
        }
      ],
      "stateMutability": "view",
      "type": "function"
    },
    {
      "inputs": [
        {
          "internalType": "uint256",
          "name": "_templateId",
          "type": "uint256"
        }
      ],
      "name": "getTemplateDegreeTypes",
      "outputs": [
        {
          "internalType": "string[]",
          "name": "",
          "type": "string[]"
        }
      ],
      "stateMutability": "view",
      "type": "function"
    },
    {
      "inputs": [],
      "name": "getTotalCertificates",
      "outputs": [
        {
          "internalType": "uint256",
          "name": "",
          "type": "uint256"
        }
      ],
      "stateMutability": "view",
      "type": "function"
    },
    {
      "inputs": [],
      "name": "getTotalTemplates",
      "outputs": [
        {
          "internalType": "uint256",
          "name": "",
          "type": "uint256"
        }
      ],
      "stateMutability": "view",
      "type": "function"
    },
    {
      "inputs": [],
      "name": "getTotalTransactions",
      "outputs": [
        {
          "internalType": "uint256",
          "name": "",
          "type": "uint256"
        }
      ],
      "stateMutability": "view",
      "type": "function"
    },
    {
      "inputs": [
        {
          "internalType": "uint256",
          "name": "_transactionId",
          "type": "uint256"
        }
      ],
      "name": "getTransaction",
      "outputs": [
        {
          "internalType": "uint256",
          "name": "id",
          "type": "uint256"
        },
        {
          "internalType": "string",
          "name": "transactionType",
          "type": "string"
        },
        {
          "internalType": "uint256",
          "name": "certificateId",
          "type": "uint256"
        },
        {
          "internalType": "address",
          "name": "party",
          "type": "address"
        },
        {
          "internalType": "address",
          "name": "relatedParty",
          "type": "address"
        },
        {
          "internalType": "string",
          "name": "details",
          "type": "string"
        },
        {
          "internalType": "uint256",
          "name": "timestamp",
          "type": "uint256"
        }
      ],
      "stateMutability": "view",
      "type": "function"
    },
    {
      "inputs": [
        {
          "internalType": "address",
          "name": "",
          "type": "address"
        },
        {
          "internalType": "uint256",
          "name": "",
          "type": "uint256"
        }
      ],
      "name": "institutionTemplateIds",
      "outputs": [
        {
          "internalType": "uint256",
          "name": "",
          "type": "uint256"
        }
      ],
      "stateMutability": "view",
      "type": "function"
    },
    {
      "inputs": [
        {
          "internalType": "uint256",
          "name": "_id",
          "type": "uint256"
        }
      ],
      "name": "isCertificateValid",
      "outputs": [
        {
          "internalType": "bool",
          "name": "isValid",
          "type": "bool"
        }
      ],
      "stateMutability": "view",
      "type": "function"
    },
    {
      "inputs": [
        {
          "internalType": "address",
          "name": "_studentAddress",
          "type": "address"
        },
        {
          "internalType": "string",
          "name": "_studentName",
          "type": "string"
        },
        {
          "internalType": "string",
          "name": "_institution",
          "type": "string"
        },
        {
          "internalType": "string",
          "name": "_degree",
          "type": "string"
        },
        {
          "internalType": "string",
          "name": "_specialization",
          "type": "string"
        },
        {
          "internalType": "string",
          "name": "_ipfsHash",
          "type": "string"
        },
        {
          "internalType": "uint256",
          "name": "_templateId",
          "type": "uint256"
        }
      ],
      "name": "issueCertificate",
      "outputs": [],
      "stateMutability": "nonpayable",
      "type": "function"
    },
    {
      "inputs": [
        {
          "internalType": "address",
          "name": "_studentAddress",
          "type": "address"
        },
        {
          "internalType": "string",
          "name": "_studentName",
          "type": "string"
        },
        {
          "internalType": "string",
          "name": "_degree",
          "type": "string"
        },
        {
          "internalType": "string",
          "name": "_specialization",
          "type": "string"
        },
        {
          "internalType": "string",
          "name": "_ipfsHash",
          "type": "string"
        },
        {
          "internalType": "uint256",
          "name": "_templateId",
          "type": "uint256"
        }
      ],
      "name": "issueCertificateWithTemplate",
      "outputs": [],
      "stateMutability": "nonpayable",
      "type": "function"
    },
    {
      "inputs": [],
      "name": "nextCertificateId",
      "outputs": [
        {
          "internalType": "uint256",
          "name": "",
          "type": "uint256"
        }
      ],
      "stateMutability": "view",
      "type": "function"
    },
    {
      "inputs": [],
      "name": "nextTemplateId",
      "outputs": [
        {
          "internalType": "uint256",
          "name": "",
          "type": "uint256"
        }
      ],
      "stateMutability": "view",
      "type": "function"
    },
    {
      "inputs": [],
      "name": "nextTransactionId",
      "outputs": [
        {
          "internalType": "uint256",
          "name": "",
          "type": "uint256"
        }
      ],
      "stateMutability": "view",
      "type": "function"
    },
    {
      "inputs": [],
      "name": "owner",
      "outputs": [
        {
          "internalType": "address",
          "name": "",
          "type": "address"
        }
      ],
      "stateMutability": "view",
      "type": "function"
    },
    {
      "inputs": [],
      "name": "renounceOwnership",
      "outputs": [],
      "stateMutability": "nonpayable",
      "type": "function"
    },
    {
      "inputs": [
        {
          "internalType": "uint256",
          "name": "_id",
          "type": "uint256"
        }
      ],
      "name": "revokeCertificate",
      "outputs": [],
      "stateMutability": "nonpayable",
      "type": "function"
    },
    {
      "inputs": [
        {
          "internalType": "address",
          "name": "_issuer",
          "type": "address"
        }
      ],
      "name": "revokeIssuer",
      "outputs": [],
      "stateMutability": "nonpayable",
      "type": "function"
    },
    {
      "inputs": [
        {
          "internalType": "address",
          "name": "",
          "type": "address"
        },
        {
          "internalType": "uint256",
          "name": "",
          "type": "uint256"
        }
      ],
      "name": "studentCertificates",
      "outputs": [
        {
          "internalType": "uint256",
          "name": "",
          "type": "uint256"
        }
      ],
      "stateMutability": "view",
      "type": "function"
    },
    {
      "inputs": [
        {
          "internalType": "uint256",
          "name": "",
          "type": "uint256"
        }
      ],
      "name": "templates",
      "outputs": [
        {
          "internalType": "uint256",
          "name": "id",
          "type": "uint256"
        },
        {
          "internalType": "address",
          "name": "institutionAddress",
          "type": "address"
        },
        {
          "internalType": "string",
          "name": "templateName",
          "type": "string"
        },
        {
          "internalType": "string",
          "name": "institutionName",
          "type": "string"
        },
        {
          "internalType": "string",
          "name": "institutionLogo",
          "type": "string"
        },
        {
          "internalType": "string",
          "name": "primaryColor",
          "type": "string"
        },
        {
          "internalType": "string",
          "name": "secondaryColor",
          "type": "string"
        },
        {
          "internalType": "bool",
          "name": "includeSpecialization",
          "type": "bool"
        },
        {
          "internalType": "bool",
          "name": "includeGrades",
          "type": "bool"
        },
        {
          "internalType": "bool",
          "name": "isActive",
          "type": "bool"
        },
        {
          "internalType": "uint256",
          "name": "createdAt",
          "type": "uint256"
        }
      ],
      "stateMutability": "view",
      "type": "function"
    },
    {
      "inputs": [
        {
          "internalType": "uint256",
          "name": "",
          "type": "uint256"
        }
      ],
      "name": "transactions",
      "outputs": [
        {
          "internalType": "uint256",
          "name": "id",
          "type": "uint256"
        },
        {
          "internalType": "string",
          "name": "transactionType",
          "type": "string"
        },
        {
          "internalType": "uint256",
          "name": "certificateId",
          "type": "uint256"
        },
        {
          "internalType": "address",
          "name": "party",
          "type": "address"
        },
        {
          "internalType": "address",
          "name": "relatedParty",
          "type": "address"
        },
        {
          "internalType": "string",
          "name": "details",
          "type": "string"
        },
        {
          "internalType": "uint256",
          "name": "timestamp",
          "type": "uint256"
        }
      ],
      "stateMutability": "view",
      "type": "function"
    },
    {
      "inputs": [
        {
          "internalType": "address",
          "name": "newOwner",
          "type": "address"
        }
      ],
      "name": "transferOwnership",
      "outputs": [],
      "stateMutability": "nonpayable",
      "type": "function"
    },
    {
      "inputs": [
        {
          "internalType": "uint256",
          "name": "_templateId",
          "type": "uint256"
        },
        {
          "internalType": "string",
          "name": "_templateName",
          "type": "string"
        },
        {
          "internalType": "string",
          "name": "_institutionName",
          "type": "string"
        },
        {
          "internalType": "string",
          "name": "_institutionLogo",
          "type": "string"
        },
        {
          "internalType": "string",
          "name": "_primaryColor",
          "type": "string"
        },
        {
          "internalType": "string",
          "name": "_secondaryColor",
          "type": "string"
        },
        {
          "internalType": "string[]",
          "name": "_degreeTypes",
          "type": "string[]"
        },
        {
          "internalType": "bool",
          "name": "_includeSpecialization",
          "type": "bool"
        },
        {
          "internalType": "bool",
          "name": "_includeGrades",
          "type": "bool"
        }
      ],
      "name": "updateTemplate",
      "outputs": [],
      "stateMutability": "nonpayable",
      "type": "function"
    },
    {
      "inputs": [
        {
          "internalType": "uint256",
          "name": "_id",
          "type": "uint256"
        }
      ],
      "name": "verifyCertificate",
      "outputs": [
        {
          "internalType": "address",
          "name": "studentAddress",
          "type": "address"
        },
        {
          "internalType": "string",
          "name": "studentName",
          "type": "string"
        },
        {
          "internalType": "string",
          "name": "institution",
          "type": "string"
        },
        {
          "internalType": "string",
          "name": "degree",
          "type": "string"
        },
        {
          "internalType": "string",
          "name": "specialization",
          "type": "string"
        },
        {
          "internalType": "uint256",
          "name": "issueDate",
          "type": "uint256"
        },
        {
          "internalType": "string",
          "name": "ipfsHash",
          "type": "string"
        },
        {
          "internalType": "bool",
          "name": "isRevoked",
          "type": "bool"
        },
        {
          "internalType": "address",
          "name": "issuer",
          "type": "address"
        },
        {
          "internalType": "uint256",
          "name": "templateId",
          "type": "uint256"
        }
      ],
      "stateMutability": "view",
      "type": "function"
    }
  ],
  "bytecode": "0x60806040523480156200001157600080fd5b506200001d336200004e565b6001808055336000908152600460205260409020805460ff1916821790556005819055600a8190556008556200009e565b600080546001600160a01b038381166001600160a01b0319831681178455604051919092169283917f8be0079c531659141344cd1fd0a4f28419497f9722a3daafe3b4186f6b6457e09190a35050565b613d2480620000ae6000396000f3fe608060405234801561001057600080fd5b50600436106101e45760003560e01c80637f626af81161010f578063c3934f0e116100a2578063ebc63bc011610071578063ebc63bc014610433578063f2fde38b14610446578063f34cee3914610459578063f731fa0f1461046c57600080fd5b8063c3934f0e14610406578063d12edcce14610419578063d7ca38f314610422578063e9ccf18b1461042b57600080fd5b8063a5ce413a116100de578063a5ce413a146103b5578063a865dda1146103d8578063b5c604ff146103eb578063bc525652146103f357600080fd5b80637f626af81461036b5780638da5cb5b1461037e5780639ace38c214610399578063a0bdb003146103ac57600080fd5b806333ea3dc811610187578063663b3e2211610156578063663b3e2214610329578063715018a61461035357806378012ef71461035b5780637843bb791461036357600080fd5b806333ea3dc8146102bd5780633c80ca98146102e3578063436693d5146102f65780634fd739a61461030957600080fd5b806306f5497e116101c357806306f5497e146102375780631692a9421461024a57806331543cf414610273578063331492301461029d57600080fd5b8062629679146101e9578063055a2182146101fe57806306c9cc6114610224575b600080fd5b6101fc6101f736600461300c565b61048f565b005b61021161020c36600461302e565b610583565b6040519081526020015b60405180910390f35b6101fc61023236600461310f565b6105b4565b6101fc6102453660046131d5565b610c18565b61025d6102583660046131d5565b610dcf565b60405161021b9a99989796959493929190613233565b6102866102813660046131d5565b6111d5565b60405161021b9b9a999897969594939291906132d3565b6102b06102ab3660046131d5565b6116bb565b60405161021b9190613389565b6102d06102cb3660046131d5565b6117cd565b60405161021b97969594939291906133eb565b6101fc6102f1366004613449565b611a0d565b6101fc61030436600461300c565b611e20565b61031c61031736600461300c565b611ef6565b60405161021b9190613535565b61033c6103373660046131d5565b611f62565b60405161021b9b9a99989796959493929190613579565b6101fc612276565b61021161228a565b6102116122a0565b6101fc6103793660046136cb565b6122b1565b6000546040516001600160a01b03909116815260200161021b565b6102d06103a73660046131d5565b612414565b61021160055481565b6103c86103c33660046131d5565b612570565b604051901515815260200161021b565b6102116103e63660046137ed565b6125a4565b610211612881565b6102866104013660046131d5565b612892565b61021161041436600461302e565b612ba1565b61021160085481565b610211600a5481565b610211600a81565b61031c61044136600461300c565b612bbd565b6101fc61045436600461300c565b612c27565b6101fc6104673660046131d5565b612c9d565b6103c861047a36600461300c565b60046020526000908152604090205460ff1681565b610497612d4b565b6001600160a01b0381166104c65760405162461bcd60e51b81526004016104bd90613905565b60405180910390fd5b6001600160a01b0381166000908152600460209081526040808320805460ff1916905580518082018252600e81526d2922ab27a5a2a22fa4a9a9aaa2a960911b818401528151808301909252601c82527f49737375657220617574686f72697a6174696f6e207265766f6b6564000000009282019290925261054c929084903390612da5565b6040516001600160a01b038216907f95a4c2ae425bb769549aa1a911911ff57c17ae811ae8c8962d0b9746fcb1539790600090a250565b6007602052816000526040600020818154811061059f57600080fd5b90600052602060002001600091509150505481565b3360009081526004602052604090205460ff16806105dc57506000546001600160a01b031633145b6105f85760405162461bcd60e51b81526004016104bd90613950565b610600612e8f565b600081118015610611575060085481105b61062d5760405162461bcd60e51b81526004016104bd906139ad565b60008181526006602052604090206008015462010000900460ff166106645760405162461bcd60e51b81526004016104bd906139f9565b60008181526006602090815260408083208151610180810183528154815260018201546001600160a01b03169381019390935260028101805491928401916106ab90613a42565b80601f01602080910402602001604051908101604052809291908181526020018280546106d790613a42565b80156107245780601f106106f957610100808354040283529160200191610724565b820191906000526020600020905b81548152906001019060200180831161070757829003601f168201915b5050505050815260200160038201805461073d90613a42565b80601f016020809104026020016040519081016040528092919081815260200182805461076990613a42565b80156107b65780601f1061078b576101008083540402835291602001916107b6565b820191906000526020600020905b81548152906001019060200180831161079957829003601f168201915b505050505081526020016004820180546107cf90613a42565b80601f01602080910402602001604051908101604052809291908181526020018280546107fb90613a42565b80156108485780601f1061081d57610100808354040283529160200191610848565b820191906000526020600020905b81548152906001019060200180831161082b57829003601f168201915b5050505050815260200160058201805461086190613a42565b80601f016020809104026020016040519081016040528092919081815260200182805461088d90613a42565b80156108da5780601f106108af576101008083540402835291602001916108da565b820191906000526020600020905b8154815290600101906020018083116108bd57829003601f168201915b505050505081526020016006820180546108f390613a42565b80601f016020809104026020016040519081016040528092919081815260200182805461091f90613a42565b801561096c5780601f106109415761010080835404028352916020019161096c565b820191906000526020600020905b81548152906001019060200180831161094f57829003601f168201915b5050505050815260200160078201805480602002602001604051908101604052809291908181526020016000905b82821015610a465783829060005260206000200180546109b990613a42565b80601f01602080910402602001604051908101604052809291908181526020018280546109e590613a42565b8015610a325780601f10610a0757610100808354040283529160200191610a32565b820191906000526020600020905b815481529060010190602001808311610a1557829003601f168201915b50505050508152602001906001019061099a565b50505090825250600882015460ff808216151560208085019190915261010083048216151560408086019190915262010000909304909116151560608401526009909301546080909201919091526005546000818152600293849052919091209081556001810180546001600160a01b0319166001600160a01b038c161790559192508101610ad58882613ac7565b5060608201516003820190610aea9082613ac7565b5060048101610af98782613ac7565b5060058101610b088682613ac7565b5042600682015560078101610b1d8582613ac7565b506008810180546001600160a81b0319166101003390810291909117909155600982018490556001600160a01b03891660009081526003602090815260408083206005805482546001810184559286529484902090910193909355805180820190915260068152651254d4d5515160d21b918101919091529054610ba2928b8a612da5565b876001600160a01b03166005547f6557fe3fb7bc98c2a20f0aed7feb47f23dc5a5ba78caa8c62e489a8901deda458985606001518a88604051610be89493929190613b87565b60405180910390a360058054906000610c0083613be8565b91905055505050610c1060018055565b505050505050565b3360009081526004602052604090205460ff1680610c4057506000546001600160a01b031633145b610c5c5760405162461bcd60e51b81526004016104bd90613950565b610c64612e8f565b600081118015610c75575060055481105b610c915760405162461bcd60e51b81526004016104bd90613c01565b60008181526002602052604090206008015460ff1615610d0c5760405162461bcd60e51b815260206004820152603060248201527f436572746966696361746552656769737472793a20436572746966696361746560448201526f08185b1c9958591e481c995d9bdad95960821b60648201526084016104bd565b600081815260026020818152604080842060088101805460ff1916600190811790915582518084018452600781526614915593d2d15160ca1b8186015295879052938352909201548251808401909352601383527210d95c9d1a599a58d85d19481c995d9bdad959606a1b91830191909152610d989291849133916001600160a01b0390911690612da5565b60405181907fefa6c5f47ac2523bb4db18032377bf7fdce0fa9d86eddcae1ca9bba38be615d790600090a2610dcc60018055565b50565b6000606080606080600060606000806000808b118015610df057506005548b105b610e0c5760405162461bcd60e51b81526004016104bd90613c01565b60008b81526002602081815260408084208151610160810183528154815260018201546001600160a01b031693810193909352928301805492939291840191610e5490613a42565b80601f0160208091040260200160405190810160405280929190818152602001828054610e8090613a42565b8015610ecd5780601f10610ea257610100808354040283529160200191610ecd565b820191906000526020600020905b815481529060010190602001808311610eb057829003601f168201915b50505050508152602001600382018054610ee690613a42565b80601f0160208091040260200160405190810160405280929190818152602001828054610f1290613a42565b8015610f5f5780601f10610f3457610100808354040283529160200191610f5f565b820191906000526020600020905b815481529060010190602001808311610f4257829003601f168201915b50505050508152602001600482018054610f7890613a42565b80601f0160208091040260200160405190810160405280929190818152602001828054610fa490613a42565b8015610ff15780601f10610fc657610100808354040283529160200191610ff1565b820191906000526020600020905b815481529060010190602001808311610fd457829003601f168201915b5050505050815260200160058201805461100a90613a42565b80601f016020809104026020016040519081016040528092919081815260200182805461103690613a42565b80156110835780601f1061105857610100808354040283529160200191611083565b820191906000526020600020905b81548152906001019060200180831161106657829003601f168201915b50505050508152602001600682015481526020016007820180546110a690613a42565b80601f01602080910402602001604051908101604052809291908181526020018280546110d290613a42565b801561111f5780601f106110f45761010080835404028352916020019161111f565b820191906000526020600020905b81548152906001019060200180831161110257829003601f168201915b505050505081526020016008820160009054906101000a900460ff161515151581526020016008820160019054906101000a90046001600160a01b03166001600160a01b03166001600160a01b03168152602001600982015481525050905080602001518160400151826060015183608001518460a001518560c001518660e001518761010001518861012001518961014001519a509a509a509a509a509a509a509a509a509a50509193959799509193959799565b600080606080606080606060008060008060008c1180156111f757506008548c105b6112135760405162461bcd60e51b81526004016104bd906139ad565b60008c81526006602090815260408083208151610180810183528154815260018201546001600160a01b031693810193909352600281018054919284019161125a90613a42565b80601f016020809104026020016040519081016040528092919081815260200182805461128690613a42565b80156112d35780601f106112a8576101008083540402835291602001916112d3565b820191906000526020600020905b8154815290600101906020018083116112b657829003601f168201915b505050505081526020016003820180546112ec90613a42565b80601f016020809104026020016040519081016040528092919081815260200182805461131890613a42565b80156113655780601f1061133a57610100808354040283529160200191611365565b820191906000526020600020905b81548152906001019060200180831161134857829003601f168201915b5050505050815260200160048201805461137e90613a42565b80601f01602080910402602001604051908101604052809291908181526020018280546113aa90613a42565b80156113f75780601f106113cc576101008083540402835291602001916113f7565b820191906000526020600020905b8154815290600101906020018083116113da57829003601f168201915b5050505050815260200160058201805461141090613a42565b80601f016020809104026020016040519081016040528092919081815260200182805461143c90613a42565b80156114895780601f1061145e57610100808354040283529160200191611489565b820191906000526020600020905b81548152906001019060200180831161146c57829003601f168201915b505050505081526020016006820180546114a290613a42565b80601f01602080910402602001604051908101604052809291908181526020018280546114ce90613a42565b801561151b5780601f106114f05761010080835404028352916020019161151b565b820191906000526020600020905b8154815290600101906020018083116114fe57829003601f168201915b5050505050815260200160078201805480602002602001604051908101604052809291908181526020016000905b828210156115f557838290600052602060002001805461156890613a42565b80601f016020809104026020016040519081016040528092919081815260200182805461159490613a42565b80156115e15780601f106115b6576101008083540402835291602001916115e1565b820191906000526020600020905b8154815290600101906020018083116115c457829003601f168201915b505050505081526020019060010190611549565b5050505081526020016008820160009054906101000a900460ff161515151581526020016008820160019054906101000a900460ff161515151581526020016008820160029054906101000a900460ff161515151581526020016009820154815250509050806000015181602001518260400151836060015184608001518560a001518660c001518761010001518861012001518961014001518a61016001519b509b509b509b509b509b509b509b509b509b509b505091939597999b90929496989a50565b60606000821180156116ce575060085482105b6116ea5760405162461bcd60e51b81526004016104bd906139ad565b600082815260066020908152604080832060070180548251818502810185019093528083529193909284015b828210156117c257838290600052602060002001805461173590613a42565b80601f016020809104026020016040519081016040528092919081815260200182805461176190613a42565b80156117ae5780601f10611783576101008083540402835291602001916117ae565b820191906000526020600020905b81548152906001019060200180831161179157829003601f168201915b505050505081526020019060010190611716565b505050509050919050565b6000606060008060006060600080881180156117ea5750600a5488105b61184e5760405162461bcd60e51b815260206004820152602f60248201527f436572746966696361746552656769737472793a205472616e73616374696f6e60448201526e08191bd95cc81b9bdd08195e1a5cdd608a1b60648201526084016104bd565b6000600960008a81526020019081526020016000206040518060e00160405290816000820154815260200160018201805461188890613a42565b80601f01602080910402602001604051908101604052809291908181526020018280546118b490613a42565b80156119015780601f106118d657610100808354040283529160200191611901565b820191906000526020600020905b8154815290600101906020018083116118e457829003601f168201915b50505091835250506002820154602082015260038201546001600160a01b039081166040830152600483015416606082015260058201805460809092019161194890613a42565b80601f016020809104026020016040519081016040528092919081815260200182805461197490613a42565b80156119c15780601f10611996576101008083540402835291602001916119c1565b820191906000526020600020905b8154815290600101906020018083116119a457829003601f168201915b50505091835250506006919091015460209182015281519082015160408301516060840151608085015160a086015160c090960151949f939e50919c509a509850919650945092505050565b3360009081526004602052604090205460ff1680611a3557506000546001600160a01b031633145b611a515760405162461bcd60e51b81526004016104bd90613950565b611a59612e8f565b6001600160a01b038716611ac45760405162461bcd60e51b815260206004820152602c60248201527f436572746966696361746552656769737472793a20496e76616c69642073747560448201526b64656e74206164647265737360a01b60648201526084016104bd565b6000865111611b285760405162461bcd60e51b815260206004820152602a60248201527f436572746966696361746552656769737472793a2053747564656e74206e616d60448201526919481c995c5d5a5c995960b21b60648201526084016104bd565b6000855111611b8b5760405162461bcd60e51b815260206004820152602960248201527f436572746966696361746552656769737472793a20496e737469747574696f6e604482015268081c995c5d5a5c995960ba1b60648201526084016104bd565b6000845111611be85760405162461bcd60e51b8152602060048201526024808201527f436572746966696361746552656769737472793a2044656772656520726571756044820152631a5c995960e21b60648201526084016104bd565b6000825111611c495760405162461bcd60e51b815260206004820152602760248201527f436572746966696361746552656769737472793a204950465320686173682072604482015266195c5d5a5c995960ca1b60648201526084016104bd565b8015611ca7576008548110611c705760405162461bcd60e51b81526004016104bd906139ad565b60008181526006602052604090206008015462010000900460ff16611ca75760405162461bcd60e51b81526004016104bd906139f9565b60055460008181526002602081905260409091209182556001820180546001600160a01b0319166001600160a01b038b161790558101611ce78882613ac7565b5060038101611cf68782613ac7565b5060048101611d058682613ac7565b5060058101611d148582613ac7565b5042600682015560078101611d298482613ac7565b506008810180546001600160a81b0319166101003390810291909117909155600982018390556001600160a01b03891660009081526003602090815260408083206005805482546001810184559286529484902090910193909355805180820190915260068152651254d4d5515160d21b918101919091529054611dae928b89612da5565b876001600160a01b03166005547f6557fe3fb7bc98c2a20f0aed7feb47f23dc5a5ba78caa8c62e489a8901deda4589898987604051611df09493929190613b87565b60405180910390a360058054906000611e0883613be8565b919050555050611e1760018055565b50505050505050565b611e28612d4b565b6001600160a01b038116611e4e5760405162461bcd60e51b81526004016104bd90613905565b6001600160a01b0381166000908152600460209081526040808320805460ff1916600117905580518082018252601181527020aaaa2427a924ad22a22fa4a9a9aaa2a960791b818401528151606081019092526027808352611ebf94919391928692339290613cc890830139612da5565b6040516001600160a01b038216907f8b4006ca14f23d4e7aa8d120d1ab7c3761d650eefac1a5d6732dbea94b54ea2490600090a250565b6001600160a01b038116600090815260076020908152604091829020805483518184028101840190945280845260609392830182828015611f5657602002820191906000526020600020905b815481526020019060010190808311611f42575b50505050509050919050565b600260208190526000918252604090912080546001820154928201805491936001600160a01b03169291611f9590613a42565b80601f0160208091040260200160405190810160405280929190818152602001828054611fc190613a42565b801561200e5780601f10611fe35761010080835404028352916020019161200e565b820191906000526020600020905b815481529060010190602001808311611ff157829003601f168201915b50505050509080600301805461202390613a42565b80601f016020809104026020016040519081016040528092919081815260200182805461204f90613a42565b801561209c5780601f106120715761010080835404028352916020019161209c565b820191906000526020600020905b81548152906001019060200180831161207f57829003601f168201915b5050505050908060040180546120b190613a42565b80601f01602080910402602001604051908101604052809291908181526020018280546120dd90613a42565b801561212a5780601f106120ff5761010080835404028352916020019161212a565b820191906000526020600020905b81548152906001019060200180831161210d57829003601f168201915b50505050509080600501805461213f90613a42565b80601f016020809104026020016040519081016040528092919081815260200182805461216b90613a42565b80156121b85780601f1061218d576101008083540402835291602001916121b8565b820191906000526020600020905b81548152906001019060200180831161219b57829003601f168201915b5050505050908060060154908060070180546121d390613a42565b80601f01602080910402602001604051908101604052809291908181526020018280546121ff90613a42565b801561224c5780601f106122215761010080835404028352916020019161224c565b820191906000526020600020905b81548152906001019060200180831161222f57829003601f168201915b505050506008830154600990930154919260ff8116926101009091046001600160a01b031691508b565b61227e612d4b565b6122886000612ee8565b565b6000600160085461229b9190613c50565b905090565b6000600160055461229b9190613c50565b6000891180156122c2575060085489105b6122de5760405162461bcd60e51b81526004016104bd906139ad565b6000898152600660205260409020600101546001600160a01b031633146123175760405162461bcd60e51b81526004016104bd90613c69565b60008981526006602052604090206008015462010000900460ff1661234e5760405162461bcd60e51b81526004016104bd906139f9565b60008981526006602052604090206002810161236a8a82613ac7565b50600381016123798982613ac7565b50600481016123888882613ac7565b50600581016123978782613ac7565b50600681016123a68682613ac7565b5083516123bc9060078301906020870190612f38565b5060088101805461ffff191684151561ff001916176101008415150217905560405133908b907f8d4ae81fba3bdbe193203e9079f4366c32aee50251517bf987d9cd8e75b2951590600090a350505050505050505050565b6009602052600090815260409020805460018201805491929161243690613a42565b80601f016020809104026020016040519081016040528092919081815260200182805461246290613a42565b80156124af5780601f10612484576101008083540402835291602001916124af565b820191906000526020600020905b81548152906001019060200180831161249257829003601f168201915b505050600284015460038501546004860154600587018054969793966001600160a01b0393841696509190921693506124e790613a42565b80601f016020809104026020016040519081016040528092919081815260200182805461251390613a42565b80156125605780601f1061253557610100808354040283529160200191612560565b820191906000526020600020905b81548152906001019060200180831161254357829003601f168201915b5050505050908060060154905087565b60008082118015612582575060055482105b1561259f575060008181526002602052604090206008015460ff16155b919050565b3360009081526004602052604081205460ff16806125cc57506000546001600160a01b031633145b6125e85760405162461bcd60e51b81526004016104bd90613950565b600089511161264d5760405162461bcd60e51b815260206004820152602b60248201527f436572746966696361746552656769737472793a2054656d706c617465206e6160448201526a1b59481c995c5d5a5c995960aa1b60648201526084016104bd565b60008851116126b55760405162461bcd60e51b815260206004820152602e60248201527f436572746966696361746552656769737472793a20496e737469747574696f6e60448201526d081b985b59481c995c5d5a5c995960921b60648201526084016104bd565b33600090815260076020526040902054600a116127315760405162461bcd60e51b815260206004820152603460248201527f436572746966696361746552656769737472793a204d6178696d756d2074656d6044820152731c1b185d195cc81b1a5b5a5d081c995858da195960621b60648201526084016104bd565b60085460008181526006602052604090209081556001810180546001600160a01b03191633179055600281016127678b82613ac7565b50600381016127768a82613ac7565b50600481016127858982613ac7565b50600581016127948882613ac7565b50600681016127a38782613ac7565b5084516127b99060078301906020880190612f38565b50600881810180546201000061ffff1990911687151561ff00191617610100871515021762ff00001916179055426009830155336000818152600760209081526040808320855481546001810183559185529290932090920155915491519091907fbe5a6327fe0ea604c5d7d9caa7e67319fb9aa0686afaf34b9d924b442ef3efb090612847908e90613cb4565b60405180910390a36008805490600061285f83613be8565b919050555060016008546128739190613c50565b9a9950505050505050505050565b60006001600a5461229b9190613c50565b60066020526000908152604090208054600182015460028301805492936001600160a01b03909216926128c490613a42565b80601f01602080910402602001604051908101604052809291908181526020018280546128f090613a42565b801561293d5780601f106129125761010080835404028352916020019161293d565b820191906000526020600020905b81548152906001019060200180831161292057829003601f168201915b50505050509080600301805461295290613a42565b80601f016020809104026020016040519081016040528092919081815260200182805461297e90613a42565b80156129cb5780601f106129a0576101008083540402835291602001916129cb565b820191906000526020600020905b8154815290600101906020018083116129ae57829003601f168201915b5050505050908060040180546129e090613a42565b80601f0160208091040260200160405190810160405280929190818152602001828054612a0c90613a42565b8015612a595780601f10612a2e57610100808354040283529160200191612a59565b820191906000526020600020905b815481529060010190602001808311612a3c57829003601f168201915b505050505090806005018054612a6e90613a42565b80601f0160208091040260200160405190810160405280929190818152602001828054612a9a90613a42565b8015612ae75780601f10612abc57610100808354040283529160200191612ae7565b820191906000526020600020905b815481529060010190602001808311612aca57829003601f168201915b505050505090806006018054612afc90613a42565b80601f0160208091040260200160405190810160405280929190818152602001828054612b2890613a42565b8015612b755780601f10612b4a57610100808354040283529160200191612b75565b820191906000526020600020905b815481529060010190602001808311612b5857829003601f168201915b5050506008840154600990940154929360ff80821694610100830482169450620100009092041691508b565b6003602052816000526040600020818154811061059f57600080fd5b6001600160a01b038116600090815260036020908152604091829020805483518184028101840190945280845260609392830182828015611f565760200282019190600052602060002090815481526020019060010190808311611f425750505050509050919050565b612c2f612d4b565b6001600160a01b038116612c945760405162461bcd60e51b815260206004820152602660248201527f4f776e61626c653a206e6577206f776e657220697320746865207a65726f206160448201526564647265737360d01b60648201526084016104bd565b610dcc81612ee8565b600081118015612cae575060085481105b612cca5760405162461bcd60e51b81526004016104bd906139ad565b6000818152600660205260409020600101546001600160a01b03163314612d035760405162461bcd60e51b81526004016104bd90613c69565b600081815260066020526040808220600801805462ff00001916905551339183917fa191aa6cc7472d528c00cdbf74abe47201b7286a623a023e38466e070036601b9190a350565b6000546001600160a01b031633146122885760405162461bcd60e51b815260206004820181905260248201527f4f776e61626c653a2063616c6c6572206973206e6f7420746865206f776e657260448201526064016104bd565b6040805160e081018252600a5480825260208083018981528385018990526001600160a01b0380891660608601528716608085015260a084018690524260c0850152600092835260099091529290208151815591519091906001820190612e0c9082613ac7565b506040820151600282015560608201516003820180546001600160a01b039283166001600160a01b031991821617909155608084015160048401805491909316911617905560a08201516005820190612e659082613ac7565b5060c09190910151600690910155600a8054906000612e8383613be8565b91905055505050505050565b600260015403612ee15760405162461bcd60e51b815260206004820152601f60248201527f5265656e7472616e637947756172643a207265656e7472616e742063616c6c0060448201526064016104bd565b6002600155565b600080546001600160a01b038381166001600160a01b0319831681178455604051919092169283917f8be0079c531659141344cd1fd0a4f28419497f9722a3daafe3b4186f6b6457e09190a35050565b828054828255906000526020600020908101928215612f7e579160200282015b82811115612f7e5782518290612f6e9082613ac7565b5091602001919060010190612f58565b50612f8a929150612f8e565b5090565b80821115612f8a576000612fa28282612fab565b50600101612f8e565b508054612fb790613a42565b6000825580601f10612fc7575050565b601f016020900490600052602060002090810190610dcc91905b80821115612f8a5760008155600101612fe1565b80356001600160a01b038116811461259f57600080fd5b60006020828403121561301e57600080fd5b61302782612ff5565b9392505050565b6000806040838503121561304157600080fd5b61304a83612ff5565b946020939093013593505050565b634e487b7160e01b600052604160045260246000fd5b604051601f8201601f1916810167ffffffffffffffff8111828210171561309757613097613058565b604052919050565b600082601f8301126130b057600080fd5b813567ffffffffffffffff8111156130ca576130ca613058565b6130dd601f8201601f191660200161306e565b8181528460208386010111156130f257600080fd5b816020850160208301376000918101602001919091529392505050565b60008060008060008060c0878903121561312857600080fd5b61313187612ff5565b9550602087013567ffffffffffffffff8082111561314e57600080fd5b61315a8a838b0161309f565b9650604089013591508082111561317057600080fd5b61317c8a838b0161309f565b9550606089013591508082111561319257600080fd5b61319e8a838b0161309f565b945060808901359150808211156131b457600080fd5b506131c189828a0161309f565b92505060a087013590509295509295509295565b6000602082840312156131e757600080fd5b5035919050565b60008151808452602060005b828110156132155784810182015186820183015281016131fa565b506000858301820152601f909101601f191690930190920192915050565b6001600160a01b038b81168252610140602083018190526000916132598483018e6131ee565b9150838203604085015261326d828d6131ee565b91508382036060850152613281828c6131ee565b91508382036080850152613295828b6131ee565b91508860a085015283820360c08501526132af82896131ee565b96151560e08501529490941661010083015250610120015250979650505050505050565b8b81526001600160a01b038b166020820152610160604082018190526000906132fe8382018d6131ee565b90508281036060840152613312818c6131ee565b90508281036080840152613326818b6131ee565b905082810360a084015261333a818a6131ee565b905082810360c084015261334e81896131ee565b91505085151560e083015261336861010083018615159052565b8315156101208301525b826101408301529c9b505050505050505050505050565b6000602080830181845280855180835260408601915060408160051b870101925083870160005b828110156133de57603f198886030184526133cc8583516131ee565b945092850192908501906001016133b0565b5092979650505050505050565b87815260e06020820152600061340460e08301896131ee565b604083018890526001600160a01b0387811660608501528616608084015282810360a084015261343481866131ee565b9150508260c083015298975050505050505050565b600080600080600080600060e0888a03121561346457600080fd5b61346d88612ff5565b9650602088013567ffffffffffffffff8082111561348a57600080fd5b6134968b838c0161309f565b975060408a01359150808211156134ac57600080fd5b6134b88b838c0161309f565b965060608a01359150808211156134ce57600080fd5b6134da8b838c0161309f565b955060808a01359150808211156134f057600080fd5b6134fc8b838c0161309f565b945060a08a013591508082111561351257600080fd5b5061351f8a828b0161309f565b92505060c0880135905092959891949750929550565b6020808252825182820181905260009190848201906040850190845b8181101561356d57835183529284019291840191600101613551565b50909695505050505050565b8b81526001600160a01b038b166020820152610160604082018190526000906135a48382018d6131ee565b905082810360608401526135b8818c6131ee565b905082810360808401526135cc818b6131ee565b905082810360a08401526135e0818a6131ee565b90508760c084015282810360e08401526135fa81886131ee565b9150508415156101008301526133726101208301856001600160a01b03169052565b600082601f83011261362d57600080fd5b8135602067ffffffffffffffff8083111561364a5761364a613058565b8260051b61365983820161306e565b938452858101830193838101908886111561367357600080fd5b84880192505b858310156136af578235848111156136915760008081fd5b61369f8a87838c010161309f565b8352509184019190840190613679565b98975050505050505050565b8035801515811461259f57600080fd5b60008060008060008060008060006101208a8c0312156136ea57600080fd5b8935985060208a013567ffffffffffffffff8082111561370957600080fd5b6137158d838e0161309f565b995060408c013591508082111561372b57600080fd5b6137378d838e0161309f565b985060608c013591508082111561374d57600080fd5b6137598d838e0161309f565b975060808c013591508082111561376f57600080fd5b61377b8d838e0161309f565b965060a08c013591508082111561379157600080fd5b61379d8d838e0161309f565b955060c08c01359150808211156137b357600080fd5b506137c08c828d0161361c565b9350506137cf60e08b016136bb565b91506137de6101008b016136bb565b90509295985092959850929598565b600080600080600080600080610100898b03121561380a57600080fd5b883567ffffffffffffffff8082111561382257600080fd5b61382e8c838d0161309f565b995060208b013591508082111561384457600080fd5b6138508c838d0161309f565b985060408b013591508082111561386657600080fd5b6138728c838d0161309f565b975060608b013591508082111561388857600080fd5b6138948c838d0161309f565b965060808b01359150808211156138aa57600080fd5b6138b68c838d0161309f565b955060a08b01359150808211156138cc57600080fd5b506138d98b828c0161361c565b9350506138e860c08a016136bb565b91506138f660e08a016136bb565b90509295985092959890939650565b6020808252602b908201527f436572746966696361746552656769737472793a20496e76616c69642069737360408201526a756572206164647265737360a81b606082015260800190565b60208082526039908201527f436572746966696361746552656769737472793a204e6f7420617574686f726960408201527f7a656420746f2069737375652063657274696669636174657300000000000000606082015260800190565b6020808252602c908201527f436572746966696361746552656769737472793a2054656d706c61746520646f60408201526b195cc81b9bdd08195e1a5cdd60a21b606082015260800190565b60208082526029908201527f436572746966696361746552656769737472793a2054656d706c61746520697360408201526820696e61637469766560b81b606082015260800190565b600181811c90821680613a5657607f821691505b602082108103613a7657634e487b7160e01b600052602260045260246000fd5b50919050565b601f821115613ac257600081815260208120601f850160051c81016020861015613aa35750805b601f850160051c820191505b81811015610c1057828155600101613aaf565b505050565b815167ffffffffffffffff811115613ae157613ae1613058565b613af581613aef8454613a42565b84613a7c565b602080601f831160018114613b2a5760008415613b125750858301515b600019600386901b1c1916600185901b178555610c10565b600085815260208120601f198616915b82811015613b5957888601518255948401946001909101908401613b3a565b5085821015613b775787850151600019600388901b60f8161c191681555b5050505050600190811b01905550565b608081526000613b9a60808301876131ee565b8281036020840152613bac81876131ee565b90508281036040840152613bc081866131ee565b91505082606083015295945050505050565b634e487b7160e01b600052601160045260246000fd5b600060018201613bfa57613bfa613bd2565b5060010190565b6020808252602f908201527f436572746966696361746552656769737472793a20436572746966696361746560408201526e08191bd95cc81b9bdd08195e1a5cdd608a1b606082015260800190565b81810381811115613c6357613c63613bd2565b92915050565b6020808252602b908201527f436572746966696361746552656769737472793a204e6f74207468652074656d60408201526a383630ba329037bbb732b960a91b606082015260800190565b60208152600061302760208301846131ee56fe49737375657220617574686f72697a656420746f20697373756520636572746966696361746573a2646970667358221220780fc1de6aae9bb222688b512cfc089aea86037966b84152a7e00ace1f76042a64736f6c63430008130033",
  "linkReferences": {},
  "deployedLinkReferences": {}
}