{
  "_format": "hh-sol-artifact-1",
  "contractName": "CertificateRegistry",
  "sourceName": "contracts/CertificateRegistry.sol",
  "abi": [
    {
      "inputs": [],
      "stateMutability": "nonpayable",
      "type": "constructor"
    },
    {
      "anonymous": false,
      "inputs": [
        {
          "indexed": true,
          "internalType": "uint256",
          "name": "id",
          "type": "uint256"
        },
        {
          "indexed": true,
          "internalType": "address",
          "name": "student",
          "type": "address"
        },
        {
          "indexed": false,
          "internalType": "string",
          "name": "studentName",
          "type": "string"
        },
        {
          "indexed": false,
          "internalType": "string",
          "name": "institution",
          "type": "string"
        },
        {
          "indexed": false,
          "internalType": "string",
          "name": "degree",
          "type": "string"
        },
        {
          "indexed": false,
          "internalType": "uint256",
          "name": "templateId",
          "type": "uint256"
        }
      ],
      "name": "CertificateIssued",
      "type": "event"
    },
    {
      "anonymous": false,
      "inputs": [
        {
          "indexed": true,
          "internalType": "uint256",
          "name": "certificateId",
          "type": "uint256"
        },
        {
          "indexed": false,
          "internalType": "uint256",
          "name": "newExpirationDate",
          "type": "uint256"
        }
      ],
      "name": "CertificateRenewed",
      "type": "event"
    },
    {
      "anonymous": false,
      "inputs": [
        {
          "indexed": true,
          "internalType": "uint256",
          "name": "id",
          "type": "uint256"
        }
      ],
      "name": "CertificateRevoked",
      "type": "event"
    },
    {
      "anonymous": false,
      "inputs": [
        {
          "indexed": true,
          "internalType": "address",
          "name": "issuer",
          "type": "address"
        }
      ],
      "name": "IssuerAuthorized",
      "type": "event"
    },
    {
      "anonymous": false,
      "inputs": [
        {
          "indexed": true,
          "internalType": "address",
          "name": "issuer",
          "type": "address"
        }
      ],
      "name": "IssuerRevoked",
      "type": "event"
    },
    {
      "anonymous": false,
      "inputs": [
        {
          "indexed": true,
          "internalType": "address",
          "name": "previousOwner",
          "type": "address"
        },
        {
          "indexed": true,
          "internalType": "address",
          "name": "newOwner",
          "type": "address"
        }
      ],
      "name": "OwnershipTransferred",
      "type": "event"
    },
    {
      "anonymous": false,
      "inputs": [
        {
          "indexed": true,
          "internalType": "uint256",
          "name": "templateId",
          "type": "uint256"
        },
        {
          "indexed": true,
          "internalType": "address",
          "name": "institution",
          "type": "address"
        },
        {
          "indexed": false,
          "internalType": "string",
          "name": "templateName",
          "type": "string"
        }
      ],
      "name": "TemplateCreated",
      "type": "event"
    },
    {
      "anonymous": false,
      "inputs": [
        {
          "indexed": true,
          "internalType": "uint256",
          "name": "templateId",
          "type": "uint256"
        },
        {
          "indexed": true,
          "internalType": "address",
          "name": "institution",
          "type": "address"
        }
      ],
      "name": "TemplateDeleted",
      "type": "event"
    },
    {
      "anonymous": false,
      "inputs": [
        {
          "indexed": true,
          "internalType": "uint256",
          "name": "templateId",
          "type": "uint256"
        },
        {
          "indexed": true,
          "internalType": "address",
          "name": "institution",
          "type": "address"
        }
      ],
      "name": "TemplateUpdated",
      "type": "event"
    },
    {
      "inputs": [],
      "name": "MAX_RENEWAL_DURATION",
      "outputs": [
        {
          "internalType": "uint256",
          "name": "",
          "type": "uint256"
        }
      ],
      "stateMutability": "view",
      "type": "function"
    },
    {
      "inputs": [],
      "name": "MAX_TEMPLATES_PER_INSTITUTION",
      "outputs": [
        {
          "internalType": "uint256",
          "name": "",
          "type": "uint256"
        }
      ],
      "stateMutability": "view",
      "type": "function"
    },
    {
      "inputs": [
        {
          "internalType": "address",
          "name": "_issuer",
          "type": "address"
        }
      ],
      "name": "authorizeIssuer",
      "outputs": [],
      "stateMutability": "nonpayable",
      "type": "function"
    },
    {
      "inputs": [
        {
          "internalType": "address",
          "name": "",
          "type": "address"
        }
      ],
      "name": "authorizedIssuers",
      "outputs": [
        {
          "internalType": "bool",
          "name": "",
          "type": "bool"
        }
      ],
      "stateMutability": "view",
      "type": "function"
    },
    {
      "inputs": [
        {
          "internalType": "uint256",
          "name": "",
          "type": "uint256"
        }
      ],
      "name": "certificates",
      "outputs": [
        {
          "internalType": "uint256",
          "name": "id",
          "type": "uint256"
        },
        {
          "internalType": "address",
          "name": "studentAddress",
          "type": "address"
        },
        {
          "internalType": "string",
          "name": "studentName",
          "type": "string"
        },
        {
          "internalType": "string",
          "name": "institution",
          "type": "string"
        },
        {
          "internalType": "string",
          "name": "degree",
          "type": "string"
        },
        {
          "internalType": "string",
          "name": "specialization",
          "type": "string"
        },
        {
          "internalType": "uint256",
          "name": "issueDate",
          "type": "uint256"
        },
        {
          "internalType": "uint256",
          "name": "expirationDate",
          "type": "uint256"
        },
        {
          "internalType": "string",
          "name": "ipfsHash",
          "type": "string"
        },
        {
          "internalType": "bool",
          "name": "isRevoked",
          "type": "bool"
        },
        {
          "internalType": "address",
          "name": "issuer",
          "type": "address"
        },
        {
          "internalType": "uint256",
          "name": "templateId",
          "type": "uint256"
        }
      ],
      "stateMutability": "view",
      "type": "function"
    },
    {
      "inputs": [
        {
          "internalType": "string",
          "name": "_templateName",
          "type": "string"
        },
        {
          "internalType": "string",
          "name": "_institutionName",
          "type": "string"
        },
        {
          "internalType": "string",
          "name": "_institutionLogo",
          "type": "string"
        },
        {
          "internalType": "string",
          "name": "_primaryColor",
          "type": "string"
        },
        {
          "internalType": "string",
          "name": "_secondaryColor",
          "type": "string"
        },
        {
          "internalType": "string[]",
          "name": "_degreeTypes",
          "type": "string[]"
        },
        {
          "internalType": "bool",
          "name": "_includeSpecialization",
          "type": "bool"
        },
        {
          "internalType": "bool",
          "name": "_includeGrades",
          "type": "bool"
        }
      ],
      "name": "createTemplate",
      "outputs": [
        {
          "internalType": "uint256",
          "name": "",
          "type": "uint256"
        }
      ],
      "stateMutability": "nonpayable",
      "type": "function"
    },
    {
      "inputs": [
        {
          "internalType": "uint256",
          "name": "_templateId",
          "type": "uint256"
        }
      ],
      "name": "deleteTemplate",
      "outputs": [],
      "stateMutability": "nonpayable",
      "type": "function"
    },
    {
      "inputs": [
        {
          "internalType": "uint256",
          "name": "_certificateId",
          "type": "uint256"
        }
      ],
      "name": "getExpirationStatus",
      "outputs": [
        {
          "internalType": "bool",
          "name": "isExpired",
          "type": "bool"
        },
        {
          "internalType": "uint256",
          "name": "expirationDate",
          "type": "uint256"
        },
        {
          "internalType": "uint256",
          "name": "remainingTime",
          "type": "uint256"
        }
      ],
      "stateMutability": "view",
      "type": "function"
    },
    {
      "inputs": [
        {
          "internalType": "address",
          "name": "_institution",
          "type": "address"
        }
      ],
      "name": "getInstitutionTemplates",
      "outputs": [
        {
          "internalType": "uint256[]",
          "name": "",
          "type": "uint256[]"
        }
      ],
      "stateMutability": "view",
      "type": "function"
    },
    {
      "inputs": [
        {
          "internalType": "address",
          "name": "_student",
          "type": "address"
        }
      ],
      "name": "getStudentCertificates",
      "outputs": [
        {
          "internalType": "uint256[]",
          "name": "",
          "type": "uint256[]"
        }
      ],
      "stateMutability": "view",
      "type": "function"
    },
    {
      "inputs": [
        {
          "internalType": "uint256",
          "name": "_templateId",
          "type": "uint256"
        }
      ],
      "name": "getTemplate",
      "outputs": [
        {
          "internalType": "uint256",
          "name": "id",
          "type": "uint256"
        },
        {
          "internalType": "address",
          "name": "institutionAddress",
          "type": "address"
        },
        {
          "internalType": "string",
          "name": "templateName",
          "type": "string"
        },
        {
          "internalType": "string",
          "name": "institutionName",
          "type": "string"
        },
        {
          "internalType": "string",
          "name": "institutionLogo",
          "type": "string"
        },
        {
          "internalType": "string",
          "name": "primaryColor",
          "type": "string"
        },
        {
          "internalType": "string",
          "name": "secondaryColor",
          "type": "string"
        },
        {
          "internalType": "bool",
          "name": "includeSpecialization",
          "type": "bool"
        },
        {
          "internalType": "bool",
          "name": "includeGrades",
          "type": "bool"
        },
        {
          "internalType": "bool",
          "name": "isActive",
          "type": "bool"
        },
        {
          "internalType": "uint256",
          "name": "createdAt",
          "type": "uint256"
        }
      ],
      "stateMutability": "view",
      "type": "function"
    },
    {
      "inputs": [
        {
          "internalType": "uint256",
          "name": "_templateId",
          "type": "uint256"
        }
      ],
      "name": "getTemplateDegreeTypes",
      "outputs": [
        {
          "internalType": "string[]",
          "name": "",
          "type": "string[]"
        }
      ],
      "stateMutability": "view",
      "type": "function"
    },
    {
      "inputs": [],
      "name": "getTotalCertificates",
      "outputs": [
        {
          "internalType": "uint256",
          "name": "",
          "type": "uint256"
        }
      ],
      "stateMutability": "view",
      "type": "function"
    },
    {
      "inputs": [],
      "name": "getTotalTemplates",
      "outputs": [
        {
          "internalType": "uint256",
          "name": "",
          "type": "uint256"
        }
      ],
      "stateMutability": "view",
      "type": "function"
    },
    {
      "inputs": [],
      "name": "getTotalTransactions",
      "outputs": [
        {
          "internalType": "uint256",
          "name": "",
          "type": "uint256"
        }
      ],
      "stateMutability": "view",
      "type": "function"
    },
    {
      "inputs": [
        {
          "internalType": "uint256",
          "name": "_transactionId",
          "type": "uint256"
        }
      ],
      "name": "getTransaction",
      "outputs": [
        {
          "internalType": "uint256",
          "name": "id",
          "type": "uint256"
        },
        {
          "internalType": "string",
          "name": "transactionType",
          "type": "string"
        },
        {
          "internalType": "uint256",
          "name": "certificateId",
          "type": "uint256"
        },
        {
          "internalType": "address",
          "name": "party",
          "type": "address"
        },
        {
          "internalType": "address",
          "name": "relatedParty",
          "type": "address"
        },
        {
          "internalType": "string",
          "name": "details",
          "type": "string"
        },
        {
          "internalType": "uint256",
          "name": "timestamp",
          "type": "uint256"
        }
      ],
      "stateMutability": "view",
      "type": "function"
    },
    {
      "inputs": [
        {
          "internalType": "address",
          "name": "",
          "type": "address"
        },
        {
          "internalType": "uint256",
          "name": "",
          "type": "uint256"
        }
      ],
      "name": "institutionTemplateIds",
      "outputs": [
        {
          "internalType": "uint256",
          "name": "",
          "type": "uint256"
        }
      ],
      "stateMutability": "view",
      "type": "function"
    },
    {
      "inputs": [
        {
          "internalType": "uint256",
          "name": "_certificateId",
          "type": "uint256"
        }
      ],
      "name": "isCertificateExpired",
      "outputs": [
        {
          "internalType": "bool",
          "name": "",
          "type": "bool"
        }
      ],
      "stateMutability": "view",
      "type": "function"
    },
    {
      "inputs": [
        {
          "internalType": "uint256",
          "name": "_id",
          "type": "uint256"
        }
      ],
      "name": "isCertificateValid",
      "outputs": [
        {
          "internalType": "bool",
          "name": "isValid",
          "type": "bool"
        }
      ],
      "stateMutability": "view",
      "type": "function"
    },
    {
      "inputs": [
        {
          "internalType": "address",
          "name": "_studentAddress",
          "type": "address"
        },
        {
          "internalType": "string",
          "name": "_studentName",
          "type": "string"
        },
        {
          "internalType": "string",
          "name": "_institution",
          "type": "string"
        },
        {
          "internalType": "string",
          "name": "_degree",
          "type": "string"
        },
        {
          "internalType": "string",
          "name": "_specialization",
          "type": "string"
        },
        {
          "internalType": "string",
          "name": "_ipfsHash",
          "type": "string"
        },
        {
          "internalType": "uint256",
          "name": "_templateId",
          "type": "uint256"
        },
        {
          "internalType": "uint256",
          "name": "_expirationDuration",
          "type": "uint256"
        }
      ],
      "name": "issueCertificate",
      "outputs": [],
      "stateMutability": "nonpayable",
      "type": "function"
    },
    {
      "inputs": [
        {
          "internalType": "address",
          "name": "_studentAddress",
          "type": "address"
        },
        {
          "internalType": "string",
          "name": "_studentName",
          "type": "string"
        },
        {
          "internalType": "string",
          "name": "_degree",
          "type": "string"
        },
        {
          "internalType": "string",
          "name": "_specialization",
          "type": "string"
        },
        {
          "internalType": "string",
          "name": "_ipfsHash",
          "type": "string"
        },
        {
          "internalType": "uint256",
          "name": "_templateId",
          "type": "uint256"
        },
        {
          "internalType": "uint256",
          "name": "_expirationDuration",
          "type": "uint256"
        }
      ],
      "name": "issueCertificateWithTemplate",
      "outputs": [],
      "stateMutability": "nonpayable",
      "type": "function"
    },
    {
      "inputs": [
        {
          "internalType": "uint256",
          "name": "_certificateId",
          "type": "uint256"
        }
      ],
      "name": "makeCertificatePermanent",
      "outputs": [],
      "stateMutability": "nonpayable",
      "type": "function"
    },
    {
      "inputs": [],
      "name": "nextCertificateId",
      "outputs": [
        {
          "internalType": "uint256",
          "name": "",
          "type": "uint256"
        }
      ],
      "stateMutability": "view",
      "type": "function"
    },
    {
      "inputs": [],
      "name": "nextTemplateId",
      "outputs": [
        {
          "internalType": "uint256",
          "name": "",
          "type": "uint256"
        }
      ],
      "stateMutability": "view",
      "type": "function"
    },
    {
      "inputs": [],
      "name": "nextTransactionId",
      "outputs": [
        {
          "internalType": "uint256",
          "name": "",
          "type": "uint256"
        }
      ],
      "stateMutability": "view",
      "type": "function"
    },
    {
      "inputs": [],
      "name": "owner",
      "outputs": [
        {
          "internalType": "address",
          "name": "",
          "type": "address"
        }
      ],
      "stateMutability": "view",
      "type": "function"
    },
    {
      "inputs": [
        {
          "internalType": "uint256",
          "name": "_certificateId",
          "type": "uint256"
        },
        {
          "internalType": "uint256",
          "name": "_newDuration",
          "type": "uint256"
        }
      ],
      "name": "renewCertificate",
      "outputs": [],
      "stateMutability": "nonpayable",
      "type": "function"
    },
    {
      "inputs": [],
      "name": "renounceOwnership",
      "outputs": [],
      "stateMutability": "nonpayable",
      "type": "function"
    },
    {
      "inputs": [
        {
          "internalType": "uint256",
          "name": "_id",
          "type": "uint256"
        }
      ],
      "name": "revokeCertificate",
      "outputs": [],
      "stateMutability": "nonpayable",
      "type": "function"
    },
    {
      "inputs": [
        {
          "internalType": "address",
          "name": "_issuer",
          "type": "address"
        }
      ],
      "name": "revokeIssuer",
      "outputs": [],
      "stateMutability": "nonpayable",
      "type": "function"
    },
    {
      "inputs": [
        {
          "internalType": "address",
          "name": "",
          "type": "address"
        },
        {
          "internalType": "uint256",
          "name": "",
          "type": "uint256"
        }
      ],
      "name": "studentCertificates",
      "outputs": [
        {
          "internalType": "uint256",
          "name": "",
          "type": "uint256"
        }
      ],
      "stateMutability": "view",
      "type": "function"
    },
    {
      "inputs": [
        {
          "internalType": "uint256",
          "name": "",
          "type": "uint256"
        }
      ],
      "name": "templates",
      "outputs": [
        {
          "internalType": "uint256",
          "name": "id",
          "type": "uint256"
        },
        {
          "internalType": "address",
          "name": "institutionAddress",
          "type": "address"
        },
        {
          "internalType": "string",
          "name": "templateName",
          "type": "string"
        },
        {
          "internalType": "string",
          "name": "institutionName",
          "type": "string"
        },
        {
          "internalType": "string",
          "name": "institutionLogo",
          "type": "string"
        },
        {
          "internalType": "string",
          "name": "primaryColor",
          "type": "string"
        },
        {
          "internalType": "string",
          "name": "secondaryColor",
          "type": "string"
        },
        {
          "internalType": "bool",
          "name": "includeSpecialization",
          "type": "bool"
        },
        {
          "internalType": "bool",
          "name": "includeGrades",
          "type": "bool"
        },
        {
          "internalType": "bool",
          "name": "isActive",
          "type": "bool"
        },
        {
          "internalType": "uint256",
          "name": "createdAt",
          "type": "uint256"
        }
      ],
      "stateMutability": "view",
      "type": "function"
    },
    {
      "inputs": [
        {
          "internalType": "uint256",
          "name": "",
          "type": "uint256"
        }
      ],
      "name": "transactions",
      "outputs": [
        {
          "internalType": "uint256",
          "name": "id",
          "type": "uint256"
        },
        {
          "internalType": "string",
          "name": "transactionType",
          "type": "string"
        },
        {
          "internalType": "uint256",
          "name": "certificateId",
          "type": "uint256"
        },
        {
          "internalType": "address",
          "name": "party",
          "type": "address"
        },
        {
          "internalType": "address",
          "name": "relatedParty",
          "type": "address"
        },
        {
          "internalType": "string",
          "name": "details",
          "type": "string"
        },
        {
          "internalType": "uint256",
          "name": "timestamp",
          "type": "uint256"
        }
      ],
      "stateMutability": "view",
      "type": "function"
    },
    {
      "inputs": [
        {
          "internalType": "address",
          "name": "newOwner",
          "type": "address"
        }
      ],
      "name": "transferOwnership",
      "outputs": [],
      "stateMutability": "nonpayable",
      "type": "function"
    },
    {
      "inputs": [
        {
          "internalType": "uint256",
          "name": "_templateId",
          "type": "uint256"
        },
        {
          "internalType": "string",
          "name": "_templateName",
          "type": "string"
        },
        {
          "internalType": "string",
          "name": "_institutionName",
          "type": "string"
        },
        {
          "internalType": "string",
          "name": "_institutionLogo",
          "type": "string"
        },
        {
          "internalType": "string",
          "name": "_primaryColor",
          "type": "string"
        },
        {
          "internalType": "string",
          "name": "_secondaryColor",
          "type": "string"
        },
        {
          "internalType": "string[]",
          "name": "_degreeTypes",
          "type": "string[]"
        },
        {
          "internalType": "bool",
          "name": "_includeSpecialization",
          "type": "bool"
        },
        {
          "internalType": "bool",
          "name": "_includeGrades",
          "type": "bool"
        }
      ],
      "name": "updateTemplate",
      "outputs": [],
      "stateMutability": "nonpayable",
      "type": "function"
    },
    {
      "inputs": [
        {
          "internalType": "uint256",
          "name": "_id",
          "type": "uint256"
        }
      ],
      "name": "verifyCertificate",
      "outputs": [
        {
          "internalType": "address",
          "name": "studentAddress",
          "type": "address"
        },
        {
          "internalType": "string",
          "name": "studentName",
          "type": "string"
        },
        {
          "internalType": "string",
          "name": "institution",
          "type": "string"
        },
        {
          "internalType": "string",
          "name": "degree",
          "type": "string"
        },
        {
          "internalType": "string",
          "name": "specialization",
          "type": "string"
        },
        {
          "internalType": "uint256",
          "name": "issueDate",
          "type": "uint256"
        },
        {
          "internalType": "uint256",
          "name": "expirationDate",
          "type": "uint256"
        },
        {
          "internalType": "string",
          "name": "ipfsHash",
          "type": "string"
        },
        {
          "internalType": "bool",
          "name": "isRevoked",
          "type": "bool"
        },
        {
          "internalType": "address",
          "name": "issuer",
          "type": "address"
        },
        {
          "internalType": "uint256",
          "name": "templateId",
          "type": "uint256"
        }
      ],
      "stateMutability": "view",
      "type": "function"
    }
  ],
  "bytecode": "0x60806040523480156200001157600080fd5b506200001d336200004e565b6001808055336000908152600460205260409020805460ff1916821790556005819055600a8190556008556200009e565b600080546001600160a01b038381166001600160a01b0319831681178455604051919092169283917f8be0079c531659141344cd1fd0a4f28419497f9722a3daafe3b4186f6b6457e09190a35050565b614ee280620000ae6000396000f3fe608060405234801561001057600080fd5b506004361061021b5760003560e01c80638da5cb5b11610125578063d12edcce116100ad578063ebc63bc01161007c578063ebc63bc0146104cd578063f2fde38b146104e0578063f34cee39146104f3578063f731fa0f14610506578063fdb5f9df1461052957600080fd5b8063d12edcce146104a0578063d7ca38f3146104a9578063deaac2da146104b2578063e9ccf18b146104c557600080fd5b8063a865dda1116100f4578063a865dda11461044c578063b5c604ff1461045f578063bbf3c87714610467578063bc5256521461047a578063c3934f0e1461048d57600080fd5b80638da5cb5b146103f25780639ace38c21461040d578063a0bdb00314610420578063a5ce413a1461042957600080fd5b80633c259795116101a8578063715018a611610177578063715018a6146103bc57806378012ef7146103c45780637843bb79146103cc5780637f626af8146103d457806384435be6146103e757600080fd5b80633c2597951461032e578063436693d51461035e5780634fd739a614610371578063663b3e221461039157600080fd5b806309293b45116101ef57806309293b45146102815780631692a9421461029457806331543cf4146102be57806333149230146102e857806333ea3dc81461030857600080fd5b806262967914610220578063033db4ea14610235578063055a21821461024857806306f5497e1461026e575b600080fd5b61023361022e3660046140b9565b61053c565b005b6102336102433660046140db565b610630565b61025b6102563660046140f4565b61093f565b6040519081526020015b60405180910390f35b61023361027c3660046140db565b610970565b61023361028f3660046141d5565b610b24565b6102a76102a23660046140db565b6111c4565b6040516102659b9a999897969594939291906142f6565b6102d16102cc3660046140db565b6115df565b6040516102659b9a999897969594939291906143b0565b6102fb6102f63660046140db565b611ac5565b6040516102659190614453565b61031b6103163660046140db565b611bd7565b60405161026597969594939291906144b5565b61034161033c3660046140db565b611e17565b604080519315158452602084019290925290820152606001610265565b61023361036c3660046140b9565b6121ef565b61038461037f3660046140b9565b6122c5565b6040516102659190614513565b6103a461039f3660046140db565b612331565b6040516102659c9b9a99989796959493929190614557565b61023361264b565b61025b61265f565b61025b612675565b6102336103e23660046146c5565b612686565b61025b6312cc030081565b6000546040516001600160a01b039091168152602001610265565b61031b61041b3660046140db565b6127e9565b61025b60055481565b61043c6104373660046140db565b612945565b6040519015158152602001610265565b61025b61045a3660046147e7565b612979565b61025b612c56565b6102336104753660046148ff565b612c67565b6102d16104883660046140db565b612fdf565b61025b61049b3660046140f4565b6132ee565b61025b60085481565b61025b600a5481565b6102336104c0366004614921565b61330a565b61025b600a81565b6103846104db3660046140b9565b613763565b6102336104ee3660046140b9565b6137cd565b6102336105013660046140db565b613843565b61043c6105143660046140b9565b60046020526000908152604090205460ff1681565b61043c6105373660046140db565b6138f1565b610544613c8c565b6001600160a01b0381166105735760405162461bcd60e51b815260040161056a90614a17565b60405180910390fd5b6001600160a01b0381166000908152600460209081526040808320805460ff1916905580518082018252600e81526d2922ab27a5a2a22fa4a9a9aaa2a960911b818401528151808301909252601c82527f49737375657220617574686f72697a6174696f6e207265766f6b656400000000928201929092526105f9929084903390613ce6565b6040516001600160a01b038216907f95a4c2ae425bb769549aa1a911911ff57c17ae811ae8c8962d0b9746fcb1539790600090a250565b3360009081526004602052604090205460ff168061065857506000546001600160a01b031633145b6106745760405162461bcd60e51b815260040161056a90614a62565b61067c613dd0565b60008111801561068d575060055481105b6106a95760405162461bcd60e51b815260040161056a90614abf565b6000818152600260205260409020600981015460ff16156107325760405162461bcd60e51b815260206004820152603860248201527f436572746966696361746552656769737472793a2043616e6e6f74206d6f646960448201527f66792061207265766f6b65642063657274696669636174650000000000000000606482015260840161056a565b3360009081526004602052604090205460ff168061075a57506000546001600160a01b031633145b6107c45760405162461bcd60e51b815260206004820152603560248201527f436572746966696361746552656769737472793a204e6f7420617574686f72696044820152741e9959081d1bc81b585ad9481c195c9b585b995b9d605a1b606482015260840161056a565b600981015461010090046001600160a01b03163314806107ee57506000546001600160a01b031633145b61086e5760405162461bcd60e51b815260206004820152604560248201527f436572746966696361746552656769737472793a204f6e6c79206f726967696e60448201527f616c20697373756572206f72206f776e65722063616e206d616b65207065726d606482015264185b995b9d60da1b608482015260a40161056a565b600081600701819055506108f76040518060400160405280600e81526020016d1350511157d4115493505391539560921b81525083338460010160009054906101000a90046001600160a01b03166040518060400160405280601a81526020017f4365727469666963617465206d616465207065726d616e656e74000000000000815250613ce6565b817fcfd9c75cefa17b4e85a91ed9d05ecab5bfe15fde464b2d442f39143895ff8897600060405161092a91815260200190565b60405180910390a25061093c60018055565b50565b6007602052816000526040600020818154811061095b57600080fd5b90600052602060002001600091509150505481565b3360009081526004602052604090205460ff168061099857506000546001600160a01b031633145b6109b45760405162461bcd60e51b815260040161056a90614a62565b6109bc613dd0565b6000811180156109cd575060055481105b6109e95760405162461bcd60e51b815260040161056a90614abf565b60008181526002602052604090206009015460ff1615610a645760405162461bcd60e51b815260206004820152603060248201527f436572746966696361746552656769737472793a20436572746966696361746560448201526f08185b1c9958591e481c995d9bdad95960821b606482015260840161056a565b600081815260026020818152604080842060098101805460ff1916600190811790915582518084018452600781526614915593d2d15160ca1b8186015295879052938352909201548251808401909352601383527210d95c9d1a599a58d85d19481c995d9bdad959606a1b91830191909152610af09291849133916001600160a01b0390911690613ce6565b60405181907fefa6c5f47ac2523bb4db18032377bf7fdce0fa9d86eddcae1ca9bba38be615d790600090a261093c60018055565b3360009081526004602052604090205460ff1680610b4c57506000546001600160a01b031633145b610b685760405162461bcd60e51b815260040161056a90614a62565b610b70613dd0565b600082118015610b81575060085482105b610b9d5760405162461bcd60e51b815260040161056a90614b0e565b60008281526006602052604090206008015462010000900460ff16610bd45760405162461bcd60e51b815260040161056a90614b5a565b6312cc0300811115610bf85760405162461bcd60e51b815260040161056a90614ba3565b60008281526006602090815260408083208151610180810183528154815260018201546001600160a01b0316938101939093526002810180549192840191610c3f90614bf8565b80601f0160208091040260200160405190810160405280929190818152602001828054610c6b90614bf8565b8015610cb85780601f10610c8d57610100808354040283529160200191610cb8565b820191906000526020600020905b815481529060010190602001808311610c9b57829003601f168201915b50505050508152602001600382018054610cd190614bf8565b80601f0160208091040260200160405190810160405280929190818152602001828054610cfd90614bf8565b8015610d4a5780601f10610d1f57610100808354040283529160200191610d4a565b820191906000526020600020905b815481529060010190602001808311610d2d57829003601f168201915b50505050508152602001600482018054610d6390614bf8565b80601f0160208091040260200160405190810160405280929190818152602001828054610d8f90614bf8565b8015610ddc5780601f10610db157610100808354040283529160200191610ddc565b820191906000526020600020905b815481529060010190602001808311610dbf57829003601f168201915b50505050508152602001600582018054610df590614bf8565b80601f0160208091040260200160405190810160405280929190818152602001828054610e2190614bf8565b8015610e6e5780601f10610e4357610100808354040283529160200191610e6e565b820191906000526020600020905b815481529060010190602001808311610e5157829003601f168201915b50505050508152602001600682018054610e8790614bf8565b80601f0160208091040260200160405190810160405280929190818152602001828054610eb390614bf8565b8015610f005780601f10610ed557610100808354040283529160200191610f00565b820191906000526020600020905b815481529060010190602001808311610ee357829003601f168201915b5050505050815260200160078201805480602002602001604051908101604052809291908181526020016000905b82821015610fda578382906000526020600020018054610f4d90614bf8565b80601f0160208091040260200160405190810160405280929190818152602001828054610f7990614bf8565b8015610fc65780601f10610f9b57610100808354040283529160200191610fc6565b820191906000526020600020905b815481529060010190602001808311610fa957829003601f168201915b505050505081526020019060010190610f2e565b50505090825250600882015460ff808216151560208085019190915261010083048216151560408086019190915262010000909304909116151560608401526009909301546080909201919091526005546000818152600293849052919091209081556001810180546001600160a01b0319166001600160a01b038d1617905591925081016110698982614c81565b506060820151600382019061107e9082614c81565b506004810161108d8882614c81565b506005810161109c8782614c81565b50426006820155600881016110b18682614c81565b506009810180546001600160a81b0319166101003302179055600a8101849055826110dd5760006110e7565b6110e78342614d57565b60078201556001600160a01b03891660009081526003602090815260408083206005805482546001810184559286529484902090910193909355805180820190915260068152651254d4d5515160d21b91810191909152905461114d9190338c8b613ce6565b886001600160a01b03166005547f6557fe3fb7bc98c2a20f0aed7feb47f23dc5a5ba78caa8c62e489a8901deda458a85606001518b896040516111939493929190614d6a565b60405180910390a3600580549060006111ab83614db5565b919050555050506111bb60018055565b50505050505050565b600060608060608060008060606000806000808c1180156111e657506005548c105b6112025760405162461bcd60e51b815260040161056a90614abf565b60008c81526002602081815260408084208151610180810183528154815260018201546001600160a01b03169381019390935292830180549293929184019161124a90614bf8565b80601f016020809104026020016040519081016040528092919081815260200182805461127690614bf8565b80156112c35780601f10611298576101008083540402835291602001916112c3565b820191906000526020600020905b8154815290600101906020018083116112a657829003601f168201915b505050505081526020016003820180546112dc90614bf8565b80601f016020809104026020016040519081016040528092919081815260200182805461130890614bf8565b80156113555780601f1061132a57610100808354040283529160200191611355565b820191906000526020600020905b81548152906001019060200180831161133857829003601f168201915b5050505050815260200160048201805461136e90614bf8565b80601f016020809104026020016040519081016040528092919081815260200182805461139a90614bf8565b80156113e75780601f106113bc576101008083540402835291602001916113e7565b820191906000526020600020905b8154815290600101906020018083116113ca57829003601f168201915b5050505050815260200160058201805461140090614bf8565b80601f016020809104026020016040519081016040528092919081815260200182805461142c90614bf8565b80156114795780601f1061144e57610100808354040283529160200191611479565b820191906000526020600020905b81548152906001019060200180831161145c57829003601f168201915b5050505050815260200160068201548152602001600782015481526020016008820180546114a690614bf8565b80601f01602080910402602001604051908101604052809291908181526020018280546114d290614bf8565b801561151f5780601f106114f45761010080835404028352916020019161151f565b820191906000526020600020905b81548152906001019060200180831161150257829003601f168201915b505050505081526020016009820160009054906101000a900460ff161515151581526020016009820160019054906101000a90046001600160a01b03166001600160a01b03166001600160a01b03168152602001600a82015481525050905080602001518160400151826060015183608001518460a001518560c001518660e001518761010001518861012001518961014001518a61016001519b509b509b509b509b509b509b509b509b509b509b505091939597999b90929496989a50565b600080606080606080606060008060008060008c11801561160157506008548c105b61161d5760405162461bcd60e51b815260040161056a90614b0e565b60008c81526006602090815260408083208151610180810183528154815260018201546001600160a01b031693810193909352600281018054919284019161166490614bf8565b80601f016020809104026020016040519081016040528092919081815260200182805461169090614bf8565b80156116dd5780601f106116b2576101008083540402835291602001916116dd565b820191906000526020600020905b8154815290600101906020018083116116c057829003601f168201915b505050505081526020016003820180546116f690614bf8565b80601f016020809104026020016040519081016040528092919081815260200182805461172290614bf8565b801561176f5780601f106117445761010080835404028352916020019161176f565b820191906000526020600020905b81548152906001019060200180831161175257829003601f168201915b5050505050815260200160048201805461178890614bf8565b80601f01602080910402602001604051908101604052809291908181526020018280546117b490614bf8565b80156118015780601f106117d657610100808354040283529160200191611801565b820191906000526020600020905b8154815290600101906020018083116117e457829003601f168201915b5050505050815260200160058201805461181a90614bf8565b80601f016020809104026020016040519081016040528092919081815260200182805461184690614bf8565b80156118935780601f1061186857610100808354040283529160200191611893565b820191906000526020600020905b81548152906001019060200180831161187657829003601f168201915b505050505081526020016006820180546118ac90614bf8565b80601f01602080910402602001604051908101604052809291908181526020018280546118d890614bf8565b80156119255780601f106118fa57610100808354040283529160200191611925565b820191906000526020600020905b81548152906001019060200180831161190857829003601f168201915b5050505050815260200160078201805480602002602001604051908101604052809291908181526020016000905b828210156119ff57838290600052602060002001805461197290614bf8565b80601f016020809104026020016040519081016040528092919081815260200182805461199e90614bf8565b80156119eb5780601f106119c0576101008083540402835291602001916119eb565b820191906000526020600020905b8154815290600101906020018083116119ce57829003601f168201915b505050505081526020019060010190611953565b5050505081526020016008820160009054906101000a900460ff161515151581526020016008820160019054906101000a900460ff161515151581526020016008820160029054906101000a900460ff161515151581526020016009820154815250509050806000015181602001518260400151836060015184608001518560a001518660c001518761010001518861012001518961014001518a61016001519b509b509b509b509b509b509b509b509b509b509b505091939597999b90929496989a50565b6060600082118015611ad8575060085482105b611af45760405162461bcd60e51b815260040161056a90614b0e565b600082815260066020908152604080832060070180548251818502810185019093528083529193909284015b82821015611bcc578382906000526020600020018054611b3f90614bf8565b80601f0160208091040260200160405190810160405280929190818152602001828054611b6b90614bf8565b8015611bb85780601f10611b8d57610100808354040283529160200191611bb8565b820191906000526020600020905b815481529060010190602001808311611b9b57829003601f168201915b505050505081526020019060010190611b20565b505050509050919050565b600060606000806000606060008088118015611bf45750600a5488105b611c585760405162461bcd60e51b815260206004820152602f60248201527f436572746966696361746552656769737472793a205472616e73616374696f6e60448201526e08191bd95cc81b9bdd08195e1a5cdd608a1b606482015260840161056a565b6000600960008a81526020019081526020016000206040518060e001604052908160008201548152602001600182018054611c9290614bf8565b80601f0160208091040260200160405190810160405280929190818152602001828054611cbe90614bf8565b8015611d0b5780601f10611ce057610100808354040283529160200191611d0b565b820191906000526020600020905b815481529060010190602001808311611cee57829003601f168201915b50505091835250506002820154602082015260038201546001600160a01b0390811660408301526004830154166060820152600582018054608090920191611d5290614bf8565b80601f0160208091040260200160405190810160405280929190818152602001828054611d7e90614bf8565b8015611dcb5780601f10611da057610100808354040283529160200191611dcb565b820191906000526020600020905b815481529060010190602001808311611dae57829003601f168201915b50505091835250506006919091015460209182015281519082015160408301516060840151608085015160a086015160c090960151949f939e50919c509a509850919650945092505050565b60008060006005548410611e3d5760405162461bcd60e51b815260040161056a90614abf565b60008481526002602081815260408084208151610180810183528154815260018201546001600160a01b031693810193909352928301805492939291840191611e8590614bf8565b80601f0160208091040260200160405190810160405280929190818152602001828054611eb190614bf8565b8015611efe5780601f10611ed357610100808354040283529160200191611efe565b820191906000526020600020905b815481529060010190602001808311611ee157829003601f168201915b50505050508152602001600382018054611f1790614bf8565b80601f0160208091040260200160405190810160405280929190818152602001828054611f4390614bf8565b8015611f905780601f10611f6557610100808354040283529160200191611f90565b820191906000526020600020905b815481529060010190602001808311611f7357829003601f168201915b50505050508152602001600482018054611fa990614bf8565b80601f0160208091040260200160405190810160405280929190818152602001828054611fd590614bf8565b80156120225780601f10611ff757610100808354040283529160200191612022565b820191906000526020600020905b81548152906001019060200180831161200557829003601f168201915b5050505050815260200160058201805461203b90614bf8565b80601f016020809104026020016040519081016040528092919081815260200182805461206790614bf8565b80156120b45780601f10612089576101008083540402835291602001916120b4565b820191906000526020600020905b81548152906001019060200180831161209757829003601f168201915b5050505050815260200160068201548152602001600782015481526020016008820180546120e190614bf8565b80601f016020809104026020016040519081016040528092919081815260200182805461210d90614bf8565b801561215a5780601f1061212f5761010080835404028352916020019161215a565b820191906000526020600020905b81548152906001019060200180831161213d57829003601f168201915b5050509183525050600982015460ff81161515602083015261010090046001600160a01b03166040820152600a9091015460609091015260e08101519091506000036121b1576000806000935093509350506121e8565b60e081015142116000816121d457428360e001516121cf9190614dce565b6121d7565b60005b60e090930151919550909350909150505b9193909250565b6121f7613c8c565b6001600160a01b03811661221d5760405162461bcd60e51b815260040161056a90614a17565b6001600160a01b0381166000908152600460209081526040808320805460ff1916600117905580518082018252601181527020aaaa2427a924ad22a22fa4a9a9aaa2a960791b81840152815160608101909252602780835261228e94919391928692339290614e8690830139613ce6565b6040516001600160a01b038216907f8b4006ca14f23d4e7aa8d120d1ab7c3761d650eefac1a5d6732dbea94b54ea2490600090a250565b6001600160a01b03811660009081526007602090815260409182902080548351818402810184019094528084526060939283018282801561232557602002820191906000526020600020905b815481526020019060010190808311612311575b50505050509050919050565b600260208190526000918252604090912080546001820154928201805491936001600160a01b0316929161236490614bf8565b80601f016020809104026020016040519081016040528092919081815260200182805461239090614bf8565b80156123dd5780601f106123b2576101008083540402835291602001916123dd565b820191906000526020600020905b8154815290600101906020018083116123c057829003601f168201915b5050505050908060030180546123f290614bf8565b80601f016020809104026020016040519081016040528092919081815260200182805461241e90614bf8565b801561246b5780601f106124405761010080835404028352916020019161246b565b820191906000526020600020905b81548152906001019060200180831161244e57829003601f168201915b50505050509080600401805461248090614bf8565b80601f01602080910402602001604051908101604052809291908181526020018280546124ac90614bf8565b80156124f95780601f106124ce576101008083540402835291602001916124f9565b820191906000526020600020905b8154815290600101906020018083116124dc57829003601f168201915b50505050509080600501805461250e90614bf8565b80601f016020809104026020016040519081016040528092919081815260200182805461253a90614bf8565b80156125875780601f1061255c57610100808354040283529160200191612587565b820191906000526020600020905b81548152906001019060200180831161256a57829003601f168201915b5050505050908060060154908060070154908060080180546125a890614bf8565b80601f01602080910402602001604051908101604052809291908181526020018280546125d490614bf8565b80156126215780601f106125f657610100808354040283529160200191612621565b820191906000526020600020905b81548152906001019060200180831161260457829003601f168201915b505050506009830154600a90930154919260ff8116926101009091046001600160a01b031691508c565b612653613c8c565b61265d6000613e29565b565b600060016008546126709190614dce565b905090565b600060016005546126709190614dce565b600089118015612697575060085489105b6126b35760405162461bcd60e51b815260040161056a90614b0e565b6000898152600660205260409020600101546001600160a01b031633146126ec5760405162461bcd60e51b815260040161056a90614de1565b60008981526006602052604090206008015462010000900460ff166127235760405162461bcd60e51b815260040161056a90614b5a565b60008981526006602052604090206002810161273f8a82614c81565b506003810161274e8982614c81565b506004810161275d8882614c81565b506005810161276c8782614c81565b506006810161277b8682614c81565b5083516127919060078301906020870190613fe5565b5060088101805461ffff191684151561ff001916176101008415150217905560405133908b907f8d4ae81fba3bdbe193203e9079f4366c32aee50251517bf987d9cd8e75b2951590600090a350505050505050505050565b6009602052600090815260409020805460018201805491929161280b90614bf8565b80601f016020809104026020016040519081016040528092919081815260200182805461283790614bf8565b80156128845780601f1061285957610100808354040283529160200191612884565b820191906000526020600020905b81548152906001019060200180831161286757829003601f168201915b505050600284015460038501546004860154600587018054969793966001600160a01b0393841696509190921693506128bc90614bf8565b80601f01602080910402602001604051908101604052809291908181526020018280546128e890614bf8565b80156129355780601f1061290a57610100808354040283529160200191612935565b820191906000526020600020905b81548152906001019060200180831161291857829003601f168201915b5050505050908060060154905087565b60008082118015612957575060055482105b15612974575060008181526002602052604090206009015460ff16155b919050565b3360009081526004602052604081205460ff16806129a157506000546001600160a01b031633145b6129bd5760405162461bcd60e51b815260040161056a90614a62565b6000895111612a225760405162461bcd60e51b815260206004820152602b60248201527f436572746966696361746552656769737472793a2054656d706c617465206e6160448201526a1b59481c995c5d5a5c995960aa1b606482015260840161056a565b6000885111612a8a5760405162461bcd60e51b815260206004820152602e60248201527f436572746966696361746552656769737472793a20496e737469747574696f6e60448201526d081b985b59481c995c5d5a5c995960921b606482015260840161056a565b33600090815260076020526040902054600a11612b065760405162461bcd60e51b815260206004820152603460248201527f436572746966696361746552656769737472793a204d6178696d756d2074656d6044820152731c1b185d195cc81b1a5b5a5d081c995858da195960621b606482015260840161056a565b60085460008181526006602052604090209081556001810180546001600160a01b0319163317905560028101612b3c8b82614c81565b5060038101612b4b8a82614c81565b5060048101612b5a8982614c81565b5060058101612b698882614c81565b5060068101612b788782614c81565b508451612b8e9060078301906020880190613fe5565b50600881810180546201000061ffff1990911687151561ff00191617610100871515021762ff00001916179055426009830155336000818152600760209081526040808320855481546001810183559185529290932090920155915491519091907fbe5a6327fe0ea604c5d7d9caa7e67319fb9aa0686afaf34b9d924b442ef3efb090612c1c908e90614e2c565b60405180910390a360088054906000612c3483614db5565b91905055506001600854612c489190614dce565b9a9950505050505050505050565b60006001600a546126709190614dce565b3360009081526004602052604090205460ff1680612c8f57506000546001600160a01b031633145b612cab5760405162461bcd60e51b815260040161056a90614a62565b612cb3613dd0565b600082118015612cc4575060055482105b612ce05760405162461bcd60e51b815260040161056a90614abf565b60008111612d4d5760405162461bcd60e51b815260206004820152603460248201527f436572746966696361746552656769737472793a204475726174696f6e206d75604482015273073742062652067726561746572207468616e20360641b606482015260840161056a565b6312cc0300811115612d715760405162461bcd60e51b815260040161056a90614ba3565b6000828152600260205260409020600981015460ff1615612dfa5760405162461bcd60e51b815260206004820152603760248201527f436572746966696361746552656769737472793a2043616e6e6f742072656e6560448201527f772061207265766f6b6564206365727469666963617465000000000000000000606482015260840161056a565b3360009081526004602052604090205460ff1680612e2257506000546001600160a01b031633145b612e835760405162461bcd60e51b815260206004820152602c60248201527f436572746966696361746552656769737472793a204e6f7420617574686f726960448201526b7a656420746f2072656e657760a01b606482015260840161056a565b600981015461010090046001600160a01b0316331480612ead57506000546001600160a01b031633145b612f1f5760405162461bcd60e51b815260206004820152603c60248201527f436572746966696361746552656769737472793a204f6e6c79206f726967696e60448201527f616c20697373756572206f72206f776e65722063616e2072656e657700000000606482015260840161056a565b612f298242614d57565b60078083019190915560408051808201909152908152661491539155d15160ca1b60208201526001820154612f939190859033906001600160a01b0316612f6f87613e79565b604051602001612f7f9190614e3f565b604051602081830303815290604052613ce6565b827fcfd9c75cefa17b4e85a91ed9d05ecab5bfe15fde464b2d442f39143895ff88978260070154604051612fc991815260200190565b60405180910390a250612fdb60018055565b5050565b60066020526000908152604090208054600182015460028301805492936001600160a01b039092169261301190614bf8565b80601f016020809104026020016040519081016040528092919081815260200182805461303d90614bf8565b801561308a5780601f1061305f5761010080835404028352916020019161308a565b820191906000526020600020905b81548152906001019060200180831161306d57829003601f168201915b50505050509080600301805461309f90614bf8565b80601f01602080910402602001604051908101604052809291908181526020018280546130cb90614bf8565b80156131185780601f106130ed57610100808354040283529160200191613118565b820191906000526020600020905b8154815290600101906020018083116130fb57829003601f168201915b50505050509080600401805461312d90614bf8565b80601f016020809104026020016040519081016040528092919081815260200182805461315990614bf8565b80156131a65780601f1061317b576101008083540402835291602001916131a6565b820191906000526020600020905b81548152906001019060200180831161318957829003601f168201915b5050505050908060050180546131bb90614bf8565b80601f01602080910402602001604051908101604052809291908181526020018280546131e790614bf8565b80156132345780601f1061320957610100808354040283529160200191613234565b820191906000526020600020905b81548152906001019060200180831161321757829003601f168201915b50505050509080600601805461324990614bf8565b80601f016020809104026020016040519081016040528092919081815260200182805461327590614bf8565b80156132c25780601f10613297576101008083540402835291602001916132c2565b820191906000526020600020905b8154815290600101906020018083116132a557829003601f168201915b5050506008840154600990940154929360ff80821694610100830482169450620100009092041691508b565b6003602052816000526040600020818154811061095b57600080fd5b3360009081526004602052604090205460ff168061333257506000546001600160a01b031633145b61334e5760405162461bcd60e51b815260040161056a90614a62565b613356613dd0565b6001600160a01b0388166133c15760405162461bcd60e51b815260206004820152602c60248201527f436572746966696361746552656769737472793a20496e76616c69642073747560448201526b64656e74206164647265737360a01b606482015260840161056a565b60008751116134255760405162461bcd60e51b815260206004820152602a60248201527f436572746966696361746552656769737472793a2053747564656e74206e616d60448201526919481c995c5d5a5c995960b21b606482015260840161056a565b60008651116134885760405162461bcd60e51b815260206004820152602960248201527f436572746966696361746552656769737472793a20496e737469747574696f6e604482015268081c995c5d5a5c995960ba1b606482015260840161056a565b60008551116134e55760405162461bcd60e51b8152602060048201526024808201527f436572746966696361746552656769737472793a2044656772656520726571756044820152631a5c995960e21b606482015260840161056a565b60008351116135465760405162461bcd60e51b815260206004820152602760248201527f436572746966696361746552656769737472793a204950465320686173682072604482015266195c5d5a5c995960ca1b606482015260840161056a565b81156135a457600854821061356d5760405162461bcd60e51b815260040161056a90614b0e565b60008281526006602052604090206008015462010000900460ff166135a45760405162461bcd60e51b815260040161056a90614b5a565b80156135ce576312cc03008111156135ce5760405162461bcd60e51b815260040161056a90614ba3565b60055460008181526002602081905260409091209182556001820180546001600160a01b0319166001600160a01b038c16179055810161360e8982614c81565b506003810161361d8882614c81565b506004810161362c8782614c81565b506005810161363b8682614c81565b504260068201558161364e576000613658565b6136588242614d57565b60078201556008810161366b8582614c81565b506009810180546001600160a81b0319166101003390810291909117909155600a82018490556001600160a01b038a1660009081526003602090815260408083206005805482546001810184559286529484902090910193909355805180820190915260068152651254d4d5515160d21b9181019190915290546136f0928c8a613ce6565b886001600160a01b03166005547f6557fe3fb7bc98c2a20f0aed7feb47f23dc5a5ba78caa8c62e489a8901deda458a8a8a886040516137329493929190614d6a565b60405180910390a36005805490600061374a83614db5565b91905055505061375960018055565b5050505050505050565b6001600160a01b03811660009081526003602090815260409182902080548351818402810184019094528084526060939283018282801561232557602002820191906000526020600020908154815260200190600101908083116123115750505050509050919050565b6137d5613c8c565b6001600160a01b03811661383a5760405162461bcd60e51b815260206004820152602660248201527f4f776e61626c653a206e6577206f776e657220697320746865207a65726f206160448201526564647265737360d01b606482015260840161056a565b61093c81613e29565b600081118015613854575060085481105b6138705760405162461bcd60e51b815260040161056a90614b0e565b6000818152600660205260409020600101546001600160a01b031633146138a95760405162461bcd60e51b815260040161056a90614de1565b600081815260066020526040808220600801805462ff00001916905551339183917fa191aa6cc7472d528c00cdbf74abe47201b7286a623a023e38466e070036601b9190a350565b600060055482106139145760405162461bcd60e51b815260040161056a90614abf565b60008281526002602081815260408084208151610180810183528154815260018201546001600160a01b03169381019390935292830180549293929184019161395c90614bf8565b80601f016020809104026020016040519081016040528092919081815260200182805461398890614bf8565b80156139d55780601f106139aa576101008083540402835291602001916139d5565b820191906000526020600020905b8154815290600101906020018083116139b857829003601f168201915b505050505081526020016003820180546139ee90614bf8565b80601f0160208091040260200160405190810160405280929190818152602001828054613a1a90614bf8565b8015613a675780601f10613a3c57610100808354040283529160200191613a67565b820191906000526020600020905b815481529060010190602001808311613a4a57829003601f168201915b50505050508152602001600482018054613a8090614bf8565b80601f0160208091040260200160405190810160405280929190818152602001828054613aac90614bf8565b8015613af95780601f10613ace57610100808354040283529160200191613af9565b820191906000526020600020905b815481529060010190602001808311613adc57829003601f168201915b50505050508152602001600582018054613b1290614bf8565b80601f0160208091040260200160405190810160405280929190818152602001828054613b3e90614bf8565b8015613b8b5780601f10613b6057610100808354040283529160200191613b8b565b820191906000526020600020905b815481529060010190602001808311613b6e57829003601f168201915b505050505081526020016006820154815260200160078201548152602001600882018054613bb890614bf8565b80601f0160208091040260200160405190810160405280929190818152602001828054613be490614bf8565b8015613c315780601f10613c0657610100808354040283529160200191613c31565b820191906000526020600020905b815481529060010190602001808311613c1457829003601f168201915b5050509183525050600982015460ff81161515602083015261010090046001600160a01b03166040820152600a9091015460609091015260e0810151909150600003613c805750600092915050565b60e00151421192915050565b6000546001600160a01b0316331461265d5760405162461bcd60e51b815260206004820181905260248201527f4f776e61626c653a2063616c6c6572206973206e6f7420746865206f776e6572604482015260640161056a565b6040805160e081018252600a5480825260208083018981528385018990526001600160a01b0380891660608601528716608085015260a084018690524260c0850152600092835260099091529290208151815591519091906001820190613d4d9082614c81565b506040820151600282015560608201516003820180546001600160a01b039283166001600160a01b031991821617909155608084015160048401805491909316911617905560a08201516005820190613da69082614c81565b5060c09190910151600690910155600a8054906000613dc483614db5565b91905055505050505050565b600260015403613e225760405162461bcd60e51b815260206004820152601f60248201527f5265656e7472616e637947756172643a207265656e7472616e742063616c6c00604482015260640161056a565b6002600155565b600080546001600160a01b038381166001600160a01b0319831681178455604051919092169283917f8be0079c531659141344cd1fd0a4f28419497f9722a3daafe3b4186f6b6457e09190a35050565b60606000613e8683613f0c565b600101905060008167ffffffffffffffff811115613ea657613ea661411e565b6040519080825280601f01601f191660200182016040528015613ed0576020820181803683370190505b5090508181016020015b600019016f181899199a1a9b1b9c1cb0b131b232b360811b600a86061a8153600a8504945084613eda57509392505050565b60008072184f03e93ff9f4daa797ed6e38ed64bf6a1f0160401b8310613f4b5772184f03e93ff9f4daa797ed6e38ed64bf6a1f0160401b830492506040015b6d04ee2d6d415b85acef81000000008310613f77576d04ee2d6d415b85acef8100000000830492506020015b662386f26fc100008310613f9557662386f26fc10000830492506010015b6305f5e1008310613fad576305f5e100830492506008015b6127108310613fc157612710830492506004015b60648310613fd3576064830492506002015b600a8310613fdf576001015b92915050565b82805482825590600052602060002090810192821561402b579160200282015b8281111561402b578251829061401b9082614c81565b5091602001919060010190614005565b5061403792915061403b565b5090565b8082111561403757600061404f8282614058565b5060010161403b565b50805461406490614bf8565b6000825580601f10614074575050565b601f01602090049060005260206000209081019061093c91905b80821115614037576000815560010161408e565b80356001600160a01b038116811461297457600080fd5b6000602082840312156140cb57600080fd5b6140d4826140a2565b9392505050565b6000602082840312156140ed57600080fd5b5035919050565b6000806040838503121561410757600080fd5b614110836140a2565b946020939093013593505050565b634e487b7160e01b600052604160045260246000fd5b604051601f8201601f1916810167ffffffffffffffff8111828210171561415d5761415d61411e565b604052919050565b600082601f83011261417657600080fd5b813567ffffffffffffffff8111156141905761419061411e565b6141a3601f8201601f1916602001614134565b8181528460208386010111156141b857600080fd5b816020850160208301376000918101602001919091529392505050565b600080600080600080600060e0888a0312156141f057600080fd5b6141f9886140a2565b9650602088013567ffffffffffffffff8082111561421657600080fd5b6142228b838c01614165565b975060408a013591508082111561423857600080fd5b6142448b838c01614165565b965060608a013591508082111561425a57600080fd5b6142668b838c01614165565b955060808a013591508082111561427c57600080fd5b506142898a828b01614165565b93505060a0880135915060c0880135905092959891949750929550565b60005b838110156142c15781810151838201526020016142a9565b50506000910152565b600081518084526142e28160208601602086016142a6565b601f01601f19169290920160200192915050565b6001600160a01b038c1681526101606020820181905260009061431b8382018e6142ca565b9050828103604084015261432f818d6142ca565b90508281036060840152614343818c6142ca565b90508281036080840152614357818b6142ca565b90508860a08401528760c084015282810360e084015261437781886142ca565b9150508415156101008301526143996101208301856001600160a01b03169052565b826101408301529c9b505050505050505050505050565b8b81526001600160a01b038b166020820152610160604082018190526000906143db8382018d6142ca565b905082810360608401526143ef818c6142ca565b90508281036080840152614403818b6142ca565b905082810360a0840152614417818a6142ca565b905082810360c084015261442b81896142ca565b91505085151560e083015261444561010083018615159052565b831515610120830152614399565b6000602080830181845280855180835260408601915060408160051b870101925083870160005b828110156144a857603f198886030184526144968583516142ca565b9450928501929085019060010161447a565b5092979650505050505050565b87815260e0602082015260006144ce60e08301896142ca565b604083018890526001600160a01b0387811660608501528616608084015282810360a08401526144fe81866142ca565b9150508260c083015298975050505050505050565b6020808252825182820181905260009190848201906040850190845b8181101561454b5783518352928401929184019160010161452f565b50909695505050505050565b8c81526001600160a01b038c166020820152610180604082018190526000906145828382018e6142ca565b90508281036060840152614596818d6142ca565b905082810360808401526145aa818c6142ca565b905082810360a08401526145be818b6142ca565b90508860c08401528760e08401528281036101008401526145df81886142ca565b9150506145f161012083018615159052565b6001600160a01b039390931661014082015261016001529a9950505050505050505050565b600082601f83011261462757600080fd5b8135602067ffffffffffffffff808311156146445761464461411e565b8260051b614653838201614134565b938452858101830193838101908886111561466d57600080fd5b84880192505b858310156146a95782358481111561468b5760008081fd5b6146998a87838c0101614165565b8352509184019190840190614673565b98975050505050505050565b8035801515811461297457600080fd5b60008060008060008060008060006101208a8c0312156146e457600080fd5b8935985060208a013567ffffffffffffffff8082111561470357600080fd5b61470f8d838e01614165565b995060408c013591508082111561472557600080fd5b6147318d838e01614165565b985060608c013591508082111561474757600080fd5b6147538d838e01614165565b975060808c013591508082111561476957600080fd5b6147758d838e01614165565b965060a08c013591508082111561478b57600080fd5b6147978d838e01614165565b955060c08c01359150808211156147ad57600080fd5b506147ba8c828d01614616565b9350506147c960e08b016146b5565b91506147d86101008b016146b5565b90509295985092959850929598565b600080600080600080600080610100898b03121561480457600080fd5b883567ffffffffffffffff8082111561481c57600080fd5b6148288c838d01614165565b995060208b013591508082111561483e57600080fd5b61484a8c838d01614165565b985060408b013591508082111561486057600080fd5b61486c8c838d01614165565b975060608b013591508082111561488257600080fd5b61488e8c838d01614165565b965060808b01359150808211156148a457600080fd5b6148b08c838d01614165565b955060a08b01359150808211156148c657600080fd5b506148d38b828c01614616565b9350506148e260c08a016146b5565b91506148f060e08a016146b5565b90509295985092959890939650565b6000806040838503121561491257600080fd5b50508035926020909101359150565b600080600080600080600080610100898b03121561493e57600080fd5b614947896140a2565b9750602089013567ffffffffffffffff8082111561496457600080fd5b6149708c838d01614165565b985060408b013591508082111561498657600080fd5b6149928c838d01614165565b975060608b01359150808211156149a857600080fd5b6149b48c838d01614165565b965060808b01359150808211156149ca57600080fd5b6149d68c838d01614165565b955060a08b01359150808211156149ec57600080fd5b506149f98b828c01614165565b93505060c0890135915060e089013590509295985092959890939650565b6020808252602b908201527f436572746966696361746552656769737472793a20496e76616c69642069737360408201526a756572206164647265737360a81b606082015260800190565b60208082526039908201527f436572746966696361746552656769737472793a204e6f7420617574686f726960408201527f7a656420746f2069737375652063657274696669636174657300000000000000606082015260800190565b6020808252602f908201527f436572746966696361746552656769737472793a20436572746966696361746560408201526e08191bd95cc81b9bdd08195e1a5cdd608a1b606082015260800190565b6020808252602c908201527f436572746966696361746552656769737472793a2054656d706c61746520646f60408201526b195cc81b9bdd08195e1a5cdd60a21b606082015260800190565b60208082526029908201527f436572746966696361746552656769737472793a2054656d706c61746520697360408201526820696e61637469766560b81b606082015260800190565b60208082526035908201527f436572746966696361746552656769737472793a204475726174696f6e20657860408201527418d959591cc81b585e1a5b5d5b48185b1b1bddd959605a1b606082015260800190565b600181811c90821680614c0c57607f821691505b602082108103614c2c57634e487b7160e01b600052602260045260246000fd5b50919050565b601f821115614c7c57600081815260208120601f850160051c81016020861015614c595750805b601f850160051c820191505b81811015614c7857828155600101614c65565b5050505b505050565b815167ffffffffffffffff811115614c9b57614c9b61411e565b614caf81614ca98454614bf8565b84614c32565b602080601f831160018114614ce45760008415614ccc5750858301515b600019600386901b1c1916600185901b178555614c78565b600085815260208120601f198616915b82811015614d1357888601518255948401946001909101908401614cf4565b5085821015614d315787850151600019600388901b60f8161c191681555b5050505050600190811b01905550565b634e487b7160e01b600052601160045260246000fd5b80820180821115613fdf57613fdf614d41565b608081526000614d7d60808301876142ca565b8281036020840152614d8f81876142ca565b90508281036040840152614da381866142ca565b91505082606083015295945050505050565b600060018201614dc757614dc7614d41565b5060010190565b81810381811115613fdf57613fdf614d41565b6020808252602b908201527f436572746966696361746552656769737472793a204e6f74207468652074656d60408201526a383630ba329037bbb732b960a91b606082015260800190565b6020815260006140d460208301846142ca565b6b02932b732bbb2b2103337b9160a51b815260008251614e6681600c8501602087016142a6565b67207365636f6e647360c01b600c93909101928301525060140191905056fe49737375657220617574686f72697a656420746f20697373756520636572746966696361746573a264697066735822122057804d835f5a4292947d8ccfbbb978390dd454b27beb24d3eddd2f8fe9f24d3364736f6c63430008130033",
  "linkReferences": {},
  "deployedLinkReferences": {}
}