{
  "_format": "hh-sol-artifact-1",
  "contractName": "LandRegistry",
  "sourceName": "contracts/LandRegistry.sol",
  "abi": [
    {
      "inputs": [],
      "stateMutability": "nonpayable",
      "type": "constructor"
    },
    {
      "anonymous": false,
      "inputs": [
        {
          "indexed": true,
          "internalType": "uint256",
          "name": "landId",
          "type": "uint256"
        }
      ],
      "name": "LandDisputed",
      "type": "event"
    },
    {
      "anonymous": false,
      "inputs": [
        {
          "indexed": true,
          "internalType": "uint256",
          "name": "landId",
          "type": "uint256"
        },
        {
          "indexed": true,
          "internalType": "address",
          "name": "owner",
          "type": "address"
        },
        {
          "indexed": false,
          "internalType": "string",
          "name": "location",
          "type": "string"
        }
      ],
      "name": "LandRegistered",
      "type": "event"
    },
    {
      "anonymous": false,
      "inputs": [
        {
          "indexed": true,
          "internalType": "uint256",
          "name": "landId",
          "type": "uint256"
        },
        {
          "indexed": false,
          "internalType": "bool",
          "name": "isActive",
          "type": "bool"
        }
      ],
      "name": "LandStatusChanged",
      "type": "event"
    },
    {
      "anonymous": false,
      "inputs": [
        {
          "indexed": true,
          "internalType": "uint256",
          "name": "landId",
          "type": "uint256"
        },
        {
          "indexed": true,
          "internalType": "address",
          "name": "previousOwner",
          "type": "address"
        },
        {
          "indexed": true,
          "internalType": "address",
          "name": "newOwner",
          "type": "address"
        }
      ],
      "name": "OwnershipTransferred",
      "type": "event"
    },
    {
      "anonymous": false,
      "inputs": [
        {
          "indexed": true,
          "internalType": "address",
          "name": "previousOwner",
          "type": "address"
        },
        {
          "indexed": true,
          "internalType": "address",
          "name": "newOwner",
          "type": "address"
        }
      ],
      "name": "OwnershipTransferred",
      "type": "event"
    },
    {
      "anonymous": false,
      "inputs": [
        {
          "indexed": true,
          "internalType": "address",
          "name": "registrar",
          "type": "address"
        }
      ],
      "name": "RegistrarAuthorized",
      "type": "event"
    },
    {
      "anonymous": false,
      "inputs": [
        {
          "indexed": true,
          "internalType": "address",
          "name": "registrar",
          "type": "address"
        }
      ],
      "name": "RegistrarRevoked",
      "type": "event"
    },
    {
      "inputs": [
        {
          "internalType": "address",
          "name": "_registrar",
          "type": "address"
        }
      ],
      "name": "authorizeRegistrar",
      "outputs": [],
      "stateMutability": "nonpayable",
      "type": "function"
    },
    {
      "inputs": [
        {
          "internalType": "address",
          "name": "",
          "type": "address"
        }
      ],
      "name": "authorizedRegistrars",
      "outputs": [
        {
          "internalType": "bool",
          "name": "",
          "type": "bool"
        }
      ],
      "stateMutability": "view",
      "type": "function"
    },
    {
      "inputs": [
        {
          "internalType": "uint256",
          "name": "_landId",
          "type": "uint256"
        }
      ],
      "name": "disputeLand",
      "outputs": [],
      "stateMutability": "nonpayable",
      "type": "function"
    },
    {
      "inputs": [
        {
          "internalType": "uint256",
          "name": "_landId",
          "type": "uint256"
        }
      ],
      "name": "getLandDetails",
      "outputs": [
        {
          "internalType": "address",
          "name": "owner",
          "type": "address"
        },
        {
          "internalType": "string",
          "name": "area",
          "type": "string"
        },
        {
          "internalType": "string",
          "name": "location",
          "type": "string"
        },
        {
          "internalType": "string",
          "name": "city",
          "type": "string"
        },
        {
          "internalType": "string",
          "name": "state",
          "type": "string"
        },
        {
          "internalType": "string",
          "name": "country",
          "type": "string"
        },
        {
          "internalType": "string",
          "name": "ipfsHash",
          "type": "string"
        },
        {
          "internalType": "uint256",
          "name": "registrationDate",
          "type": "uint256"
        },
        {
          "internalType": "bool",
          "name": "isActive",
          "type": "bool"
        },
        {
          "internalType": "bool",
          "name": "isDisputed",
          "type": "bool"
        }
      ],
      "stateMutability": "view",
      "type": "function"
    },
    {
      "inputs": [
        {
          "internalType": "address",
          "name": "_owner",
          "type": "address"
        }
      ],
      "name": "getOwnerLands",
      "outputs": [
        {
          "internalType": "uint256[]",
          "name": "",
          "type": "uint256[]"
        }
      ],
      "stateMutability": "view",
      "type": "function"
    },
    {
      "inputs": [],
      "name": "getTotalLands",
      "outputs": [
        {
          "internalType": "uint256",
          "name": "",
          "type": "uint256"
        }
      ],
      "stateMutability": "view",
      "type": "function"
    },
    {
      "inputs": [],
      "name": "getTotalTransactions",
      "outputs": [
        {
          "internalType": "uint256",
          "name": "",
          "type": "uint256"
        }
      ],
      "stateMutability": "view",
      "type": "function"
    },
    {
      "inputs": [
        {
          "internalType": "uint256",
          "name": "_transactionId",
          "type": "uint256"
        }
      ],
      "name": "getTransaction",
      "outputs": [
        {
          "internalType": "uint256",
          "name": "id",
          "type": "uint256"
        },
        {
          "internalType": "string",
          "name": "transactionType",
          "type": "string"
        },
        {
          "internalType": "uint256",
          "name": "landId",
          "type": "uint256"
        },
        {
          "internalType": "address",
          "name": "party",
          "type": "address"
        },
        {
          "internalType": "address",
          "name": "relatedParty",
          "type": "address"
        },
        {
          "internalType": "string",
          "name": "details",
          "type": "string"
        },
        {
          "internalType": "uint256",
          "name": "timestamp",
          "type": "uint256"
        }
      ],
      "stateMutability": "view",
      "type": "function"
    },
    {
      "inputs": [
        {
          "internalType": "uint256",
          "name": "",
          "type": "uint256"
        }
      ],
      "name": "lands",
      "outputs": [
        {
          "internalType": "uint256",
          "name": "landId",
          "type": "uint256"
        },
        {
          "internalType": "address",
          "name": "owner",
          "type": "address"
        },
        {
          "internalType": "string",
          "name": "area",
          "type": "string"
        },
        {
          "internalType": "string",
          "name": "location",
          "type": "string"
        },
        {
          "internalType": "string",
          "name": "city",
          "type": "string"
        },
        {
          "internalType": "string",
          "name": "state",
          "type": "string"
        },
        {
          "internalType": "string",
          "name": "country",
          "type": "string"
        },
        {
          "internalType": "string",
          "name": "ipfsHash",
          "type": "string"
        },
        {
          "internalType": "uint256",
          "name": "registrationDate",
          "type": "uint256"
        },
        {
          "internalType": "bool",
          "name": "isActive",
          "type": "bool"
        },
        {
          "internalType": "bool",
          "name": "isDisputed",
          "type": "bool"
        }
      ],
      "stateMutability": "view",
      "type": "function"
    },
    {
      "inputs": [],
      "name": "nextLandId",
      "outputs": [
        {
          "internalType": "uint256",
          "name": "",
          "type": "uint256"
        }
      ],
      "stateMutability": "view",
      "type": "function"
    },
    {
      "inputs": [],
      "name": "nextTransactionId",
      "outputs": [
        {
          "internalType": "uint256",
          "name": "",
          "type": "uint256"
        }
      ],
      "stateMutability": "view",
      "type": "function"
    },
    {
      "inputs": [],
      "name": "owner",
      "outputs": [
        {
          "internalType": "address",
          "name": "",
          "type": "address"
        }
      ],
      "stateMutability": "view",
      "type": "function"
    },
    {
      "inputs": [
        {
          "internalType": "address",
          "name": "",
          "type": "address"
        },
        {
          "internalType": "uint256",
          "name": "",
          "type": "uint256"
        }
      ],
      "name": "ownerLands",
      "outputs": [
        {
          "internalType": "uint256",
          "name": "",
          "type": "uint256"
        }
      ],
      "stateMutability": "view",
      "type": "function"
    },
    {
      "inputs": [
        {
          "internalType": "address",
          "name": "_owner",
          "type": "address"
        },
        {
          "internalType": "string",
          "name": "_area",
          "type": "string"
        },
        {
          "internalType": "string",
          "name": "_location",
          "type": "string"
        },
        {
          "internalType": "string",
          "name": "_city",
          "type": "string"
        },
        {
          "internalType": "string",
          "name": "_state",
          "type": "string"
        },
        {
          "internalType": "string",
          "name": "_country",
          "type": "string"
        },
        {
          "internalType": "string",
          "name": "_ipfsHash",
          "type": "string"
        }
      ],
      "name": "registerLand",
      "outputs": [],
      "stateMutability": "nonpayable",
      "type": "function"
    },
    {
      "inputs": [],
      "name": "renounceOwnership",
      "outputs": [],
      "stateMutability": "nonpayable",
      "type": "function"
    },
    {
      "inputs": [
        {
          "internalType": "address",
          "name": "_registrar",
          "type": "address"
        }
      ],
      "name": "revokeRegistrar",
      "outputs": [],
      "stateMutability": "nonpayable",
      "type": "function"
    },
    {
      "inputs": [
        {
          "internalType": "uint256",
          "name": "_landId",
          "type": "uint256"
        },
        {
          "internalType": "bool",
          "name": "_isActive",
          "type": "bool"
        }
      ],
      "name": "setLandStatus",
      "outputs": [],
      "stateMutability": "nonpayable",
      "type": "function"
    },
    {
      "inputs": [
        {
          "internalType": "uint256",
          "name": "",
          "type": "uint256"
        }
      ],
      "name": "transactions",
      "outputs": [
        {
          "internalType": "uint256",
          "name": "id",
          "type": "uint256"
        },
        {
          "internalType": "string",
          "name": "transactionType",
          "type": "string"
        },
        {
          "internalType": "uint256",
          "name": "landId",
          "type": "uint256"
        },
        {
          "internalType": "address",
          "name": "party",
          "type": "address"
        },
        {
          "internalType": "address",
          "name": "relatedParty",
          "type": "address"
        },
        {
          "internalType": "string",
          "name": "details",
          "type": "string"
        },
        {
          "internalType": "uint256",
          "name": "timestamp",
          "type": "uint256"
        }
      ],
      "stateMutability": "view",
      "type": "function"
    },
    {
      "inputs": [
        {
          "internalType": "uint256",
          "name": "_landId",
          "type": "uint256"
        },
        {
          "internalType": "address",
          "name": "_newOwner",
          "type": "address"
        }
      ],
      "name": "transferOwnership",
      "outputs": [],
      "stateMutability": "nonpayable",
      "type": "function"
    },
    {
      "inputs": [
        {
          "internalType": "address",
          "name": "newOwner",
          "type": "address"
        }
      ],
      "name": "transferOwnership",
      "outputs": [],
      "stateMutability": "nonpayable",
      "type": "function"
    }
  ],
  "bytecode": "0x608060405234801561001057600080fd5b5061001a33610045565b6001808055336000908152600460205260409020805460ff1916821790556005819055600755610095565b600080546001600160a01b038381166001600160a01b0319831681178455604051919092169283917f8be0079c531659141344cd1fd0a4f28419497f9722a3daafe3b4186f6b6457e09190a35050565b612509806100a46000396000f3fe608060405234801561001057600080fd5b506004361061012c5760003560e01c8063ad6d7b7e116100ad578063d7ca38f311610071578063d7ca38f314610284578063e261f1e51461028d578063f2fde38b146102b7578063fb73e819146102ca578063fe0cb7dc146102dd57600080fd5b8063ad6d7b7e1461022d578063ad9a3eb014610240578063b5c604ff14610249578063bf5172d714610251578063d0dea6e21461027157600080fd5b8063715018a6116100f4578063715018a6146101ae578063842e7dba146101b65780638da5cb5b146101cc5780639ace38c2146101e7578063a9c6b3fa146101fa57600080fd5b80631239ba1c1461013157806312550f291461014657806329507f731461015957806333ea3dc81461016c57806343b8b7441461019b575b600080fd5b61014461013f366004611ddb565b610306565b005b610144610154366004611ee2565b610621565b610144610167366004611f04565b61070f565b61017f61017a366004611f30565b6109d8565b6040516101929796959493929190611f8f565b60405180910390f35b6101446101a9366004611f30565b610c11565b610144610d49565b6101be610d5d565b604051908152602001610192565b6000546040516001600160a01b039091168152602001610192565b61017f6101f5366004611f30565b610d73565b61021d610208366004611ee2565b60046020526000908152604090205460ff1681565b6040519015158152602001610192565b61014461023b366004611ee2565b610ecf565b6101be60055481565b6101be610fa8565b61026461025f366004611ee2565b610fb9565b6040516101929190611fed565b6101be61027f366004612031565b611025565b6101be60075481565b6102a061029b366004611f30565b611056565b6040516101929b9a9998979695949392919061205b565b6101446102c5366004611ee2565b6113eb565b6101446102d836600461211c565b611464565b6102f06102eb366004611f30565b6115e2565b6040516101929a99989796959493929190612151565b3360009081526004602052604090205460ff168061032e57506000546001600160a01b031633145b6103535760405162461bcd60e51b815260040161034a9061220a565b60405180910390fd5b61035b611a5b565b6001600160a01b0387166103bd5760405162461bcd60e51b815260206004820152602360248201527f4c616e6452656769737472793a20496e76616c6964206f776e6572206164647260448201526265737360e81b606482015260840161034a565b600086511161040e5760405162461bcd60e51b815260206004820152601b60248201527f4c616e6452656769737472793a20417265612072657175697265640000000000604482015260640161034a565b600085511161045f5760405162461bcd60e51b815260206004820152601f60248201527f4c616e6452656769737472793a204c6f636174696f6e20726571756972656400604482015260640161034a565b60008151116104b05760405162461bcd60e51b815260206004820181905260248201527f4c616e6452656769737472793a20495046532068617368207265717569726564604482015260640161034a565b60055460008181526002602081905260409091209182556001820180546001600160a01b0319166001600160a01b038b1617905581016104f088826122df565b50600381016104ff87826122df565b506004810161050e86826122df565b506005810161051d85826122df565b506006810161052c84826122df565b506007810161053b83826122df565b5042600882015560098101805461ffff191660019081179091556001600160a01b0389166000908152600360209081526040808320600580548254968701835591855293839020909401939093558251808401909352600a835269149151d254d51154915160b21b90830152546105b591908a338a611ab4565b876001600160a01b03166005547f9c4ad74928fec1ee86181680df0e76bf575b79ea2a0347f7ed270884bdd26ad7886040516105f1919061239f565b60405180910390a360058054906000610609836123c8565b91905055505061061860018055565b50505050505050565b610629611b9e565b6001600160a01b03811661064f5760405162461bcd60e51b815260040161034a906123e1565b6001600160a01b0381166000908152600460209081526040808320805460ff191690558051808201825260118152702922ab27a5a2a22fa922a3a4a9aa2920a960791b818401528151808301909252601f82527f52656769737472617220617574686f72697a6174696f6e207265766f6b656400928201929092526106d8929084903390611ab4565b6040516001600160a01b038216907fae68273249464824365aa82702a055c1b2848c34d2338d4aa68ee4ddec1817b290600090a250565b60008281526002602052604090206001015482906001600160a01b0316331461077a5760405162461bcd60e51b815260206004820181905260248201527f4c616e6452656769737472793a204e6f7420746865206c616e64206f776e6572604482015260640161034a565b610782611a5b565b6001600160a01b0382166107e85760405162461bcd60e51b815260206004820152602760248201527f4c616e6452656769737472793a20496e76616c6964206e6577206f776e6572206044820152666164647265737360c81b606482015260840161034a565b60008381526002602052604090206009015460ff166108495760405162461bcd60e51b815260206004820181905260248201527f4c616e6452656769737472793a204c616e64206973206e6f7420616374697665604482015260640161034a565b600083815260026020526040902060090154610100900460ff16156108bc5760405162461bcd60e51b815260206004820152602360248201527f4c616e6452656769737472793a204c616e6420697320756e646572206469737060448201526275746560e81b606482015260840161034a565b6000838152600260205260409020600101546001600160a01b03166108e18185611bf8565b6000848152600260209081526040808320600190810180546001600160a01b0319166001600160a01b0389169081179091558452600383528184208054918201815584529282902090920186905581518083018352600b81526a1514905394d1915494915160aa1b818301528251808401909352601583527413dddb995c9cda1a5c081d1c985b9cd9995c9c9959605a1b9183019190915261098891869084908790611ab4565b826001600160a01b0316816001600160a01b0316857f16b85f49bf01212961345d3016c9a531894accf62eb7680f2045d79185cc0ec060405160405180910390a4506109d360018055565b505050565b6000606060008060006060600080881180156109f5575060075488105b610a525760405162461bcd60e51b815260206004820152602860248201527f4c616e6452656769737472793a205472616e73616374696f6e20646f6573206e6044820152671bdd08195e1a5cdd60c21b606482015260840161034a565b6000600660008a81526020019081526020016000206040518060e001604052908160008201548152602001600182018054610a8c90612257565b80601f0160208091040260200160405190810160405280929190818152602001828054610ab890612257565b8015610b055780601f10610ada57610100808354040283529160200191610b05565b820191906000526020600020905b815481529060010190602001808311610ae857829003601f168201915b50505091835250506002820154602082015260038201546001600160a01b0390811660408301526004830154166060820152600582018054608090920191610b4c90612257565b80601f0160208091040260200160405190810160405280929190818152602001828054610b7890612257565b8015610bc55780601f10610b9a57610100808354040283529160200191610bc5565b820191906000526020600020905b815481529060010190602001808311610ba857829003601f168201915b50505091835250506006919091015460209182015281519082015160408301516060840151608085015160a086015160c090960151949f939e50919c509a509850919650945092505050565b3360009081526004602052604090205460ff1680610c3957506000546001600160a01b031633145b610c555760405162461bcd60e51b815260040161034a9061220a565b600081118015610c66575060055481105b610c825760405162461bcd60e51b815260040161034a90612428565b600081815260026020818152604080842060098101805461ff001916610100179055815180830183526008815267111254d41555115160c21b8185015294869052928252600192909201548251808401909352601783527f4c616e64206d61726b656420617320646973707574656400000000000000000091830191909152610d1b9291849133916001600160a01b0390911690611ab4565b60405181907ff2e613563941e27f281c1b8549377c3c23f8eb7ec2e98f6cf1e78196a62be82890600090a250565b610d51611b9e565b610d5b6000611ccc565b565b60006001600554610d6e9190612469565b905090565b60066020526000908152604090208054600182018054919291610d9590612257565b80601f0160208091040260200160405190810160405280929190818152602001828054610dc190612257565b8015610e0e5780601f10610de357610100808354040283529160200191610e0e565b820191906000526020600020905b815481529060010190602001808311610df157829003601f168201915b505050600284015460038501546004860154600587018054969793966001600160a01b039384169650919092169350610e4690612257565b80601f0160208091040260200160405190810160405280929190818152602001828054610e7290612257565b8015610ebf5780601f10610e9457610100808354040283529160200191610ebf565b820191906000526020600020905b815481529060010190602001808311610ea257829003601f168201915b5050505050908060060154905087565b610ed7611b9e565b6001600160a01b038116610efd5760405162461bcd60e51b815260040161034a906123e1565b6001600160a01b0381166000908152600460209081526040808320805460ff1916600117905580518082018252601481527320aaaa2427a924ad22a22fa922a3a4a9aa2920a960611b818401528151606081019092526025808352610f71949193919286923392906124af90830139611ab4565b6040516001600160a01b038216907ff90b3304151c89847ba28c08c86e9391dd12ef3a402cba7d3728776a36f29d1190600090a250565b60006001600754610d6e9190612469565b6001600160a01b03811660009081526003602090815260409182902080548351818402810184019094528084526060939283018282801561101957602002820191906000526020600020905b815481526020019060010190808311611005575b50505050509050919050565b6003602052816000526040600020818154811061104157600080fd5b90600052602060002001600091509150505481565b600260208190526000918252604090912080546001820154928201805491936001600160a01b0316929161108990612257565b80601f01602080910402602001604051908101604052809291908181526020018280546110b590612257565b80156111025780601f106110d757610100808354040283529160200191611102565b820191906000526020600020905b8154815290600101906020018083116110e557829003601f168201915b50505050509080600301805461111790612257565b80601f016020809104026020016040519081016040528092919081815260200182805461114390612257565b80156111905780601f1061116557610100808354040283529160200191611190565b820191906000526020600020905b81548152906001019060200180831161117357829003601f168201915b5050505050908060040180546111a590612257565b80601f01602080910402602001604051908101604052809291908181526020018280546111d190612257565b801561121e5780601f106111f35761010080835404028352916020019161121e565b820191906000526020600020905b81548152906001019060200180831161120157829003601f168201915b50505050509080600501805461123390612257565b80601f016020809104026020016040519081016040528092919081815260200182805461125f90612257565b80156112ac5780601f10611281576101008083540402835291602001916112ac565b820191906000526020600020905b81548152906001019060200180831161128f57829003601f168201915b5050505050908060060180546112c190612257565b80601f01602080910402602001604051908101604052809291908181526020018280546112ed90612257565b801561133a5780601f1061130f5761010080835404028352916020019161133a565b820191906000526020600020905b81548152906001019060200180831161131d57829003601f168201915b50505050509080600701805461134f90612257565b80601f016020809104026020016040519081016040528092919081815260200182805461137b90612257565b80156113c85780601f1061139d576101008083540402835291602001916113c8565b820191906000526020600020905b8154815290600101906020018083116113ab57829003601f168201915b50505050600883015460099093015491929160ff8082169250610100909104168b565b6113f3611b9e565b6001600160a01b0381166114585760405162461bcd60e51b815260206004820152602660248201527f4f776e61626c653a206e6577206f776e657220697320746865207a65726f206160448201526564647265737360d01b606482015260840161034a565b61146181611ccc565b50565b3360009081526004602052604090205460ff168061148c57506000546001600160a01b031633145b6114a85760405162461bcd60e51b815260040161034a9061220a565b6000821180156114b9575060055482105b6114d55760405162461bcd60e51b815260040161034a90612428565b6000828152600260205260408120600901805460ff191683151517905581611525576040518060400160405280601081526020016f13185b990819195858dd1a5d985d195960821b81525061154d565b6040518060400160405280600e81526020016d13185b99081858dd1a5d985d195960921b8152505b604080518082018252600e81526d14d510551554d7d0d2105391d15160921b6020808301919091526000878152600290915291909120600101549192506115a191859033906001600160a01b031685611ab4565b827f65c7bb14d09445a5dba3376a8b80996a15d1da748030284c2b167db897599ae1836040516115d5911515815260200190565b60405180910390a2505050565b60006060806060806060806000806000808b11801561160257506005548b105b61161e5760405162461bcd60e51b815260040161034a90612428565b60008b81526002602081815260408084208151610160810183528154815260018201546001600160a01b03169381019390935292830180549293929184019161166690612257565b80601f016020809104026020016040519081016040528092919081815260200182805461169290612257565b80156116df5780601f106116b4576101008083540402835291602001916116df565b820191906000526020600020905b8154815290600101906020018083116116c257829003601f168201915b505050505081526020016003820180546116f890612257565b80601f016020809104026020016040519081016040528092919081815260200182805461172490612257565b80156117715780601f1061174657610100808354040283529160200191611771565b820191906000526020600020905b81548152906001019060200180831161175457829003601f168201915b5050505050815260200160048201805461178a90612257565b80601f01602080910402602001604051908101604052809291908181526020018280546117b690612257565b80156118035780601f106117d857610100808354040283529160200191611803565b820191906000526020600020905b8154815290600101906020018083116117e657829003601f168201915b5050505050815260200160058201805461181c90612257565b80601f016020809104026020016040519081016040528092919081815260200182805461184890612257565b80156118955780601f1061186a57610100808354040283529160200191611895565b820191906000526020600020905b81548152906001019060200180831161187857829003601f168201915b505050505081526020016006820180546118ae90612257565b80601f01602080910402602001604051908101604052809291908181526020018280546118da90612257565b80156119275780601f106118fc57610100808354040283529160200191611927565b820191906000526020600020905b81548152906001019060200180831161190a57829003601f168201915b5050505050815260200160078201805461194090612257565b80601f016020809104026020016040519081016040528092919081815260200182805461196c90612257565b80156119b95780601f1061198e576101008083540402835291602001916119b9565b820191906000526020600020905b81548152906001019060200180831161199c57829003601f168201915b50505050508152602001600882015481526020016009820160009054906101000a900460ff161515151581526020016009820160019054906101000a900460ff161515151581525050905080602001518160400151826060015183608001518460a001518560c001518660e001518761010001518861012001518961014001519a509a509a509a509a509a509a509a509a509a50509193959799509193959799565b600260015403611aad5760405162461bcd60e51b815260206004820152601f60248201527f5265656e7472616e637947756172643a207265656e7472616e742063616c6c00604482015260640161034a565b6002600155565b6040805160e08101825260075480825260208083018981528385018990526001600160a01b0380891660608601528716608085015260a084018690524260c0850152600092835260069091529290208151815591519091906001820190611b1b90826122df565b506040820151600282015560608201516003820180546001600160a01b039283166001600160a01b031991821617909155608084015160048401805491909316911617905560a08201516005820190611b7490826122df565b5060c0919091015160069091015560078054906000611b92836123c8565b91905055505050505050565b6000546001600160a01b03163314610d5b5760405162461bcd60e51b815260206004820181905260248201527f4f776e61626c653a2063616c6c6572206973206e6f7420746865206f776e6572604482015260640161034a565b6001600160a01b0382166000908152600360205260408120905b8154811015611cc65782828281548110611c2e57611c2e612482565b906000526020600020015403611cb45781548290611c4e90600190612469565b81548110611c5e57611c5e612482565b9060005260206000200154828281548110611c7b57611c7b612482565b906000526020600020018190555081805480611c9957611c99612498565b60019003818190600052602060002001600090559055611cc6565b80611cbe816123c8565b915050611c12565b50505050565b600080546001600160a01b038381166001600160a01b0319831681178455604051919092169283917f8be0079c531659141344cd1fd0a4f28419497f9722a3daafe3b4186f6b6457e09190a35050565b80356001600160a01b0381168114611d3357600080fd5b919050565b634e487b7160e01b600052604160045260246000fd5b600082601f830112611d5f57600080fd5b813567ffffffffffffffff80821115611d7a57611d7a611d38565b604051601f8301601f19908116603f01168101908282118183101715611da257611da2611d38565b81604052838152866020858801011115611dbb57600080fd5b836020870160208301376000602085830101528094505050505092915050565b600080600080600080600060e0888a031215611df657600080fd5b611dff88611d1c565b9650602088013567ffffffffffffffff80821115611e1c57600080fd5b611e288b838c01611d4e565b975060408a0135915080821115611e3e57600080fd5b611e4a8b838c01611d4e565b965060608a0135915080821115611e6057600080fd5b611e6c8b838c01611d4e565b955060808a0135915080821115611e8257600080fd5b611e8e8b838c01611d4e565b945060a08a0135915080821115611ea457600080fd5b611eb08b838c01611d4e565b935060c08a0135915080821115611ec657600080fd5b50611ed38a828b01611d4e565b91505092959891949750929550565b600060208284031215611ef457600080fd5b611efd82611d1c565b9392505050565b60008060408385031215611f1757600080fd5b82359150611f2760208401611d1c565b90509250929050565b600060208284031215611f4257600080fd5b5035919050565b6000815180845260005b81811015611f6f57602081850181015186830182015201611f53565b506000602082860101526020601f19601f83011685010191505092915050565b87815260e060208201526000611fa860e0830189611f49565b604083018890526001600160a01b0387811660608501528616608084015282810360a0840152611fd88186611f49565b9150508260c083015298975050505050505050565b6020808252825182820181905260009190848201906040850190845b8181101561202557835183529284019291840191600101612009565b50909695505050505050565b6000806040838503121561204457600080fd5b61204d83611d1c565b946020939093013593505050565b8b81526001600160a01b038b166020820152610160604082018190526000906120868382018d611f49565b9050828103606084015261209a818c611f49565b905082810360808401526120ae818b611f49565b905082810360a08401526120c2818a611f49565b905082810360c08401526120d68189611f49565b905082810360e08401526120ea8188611f49565b9150508461010083015261210361012083018515159052565b8215156101408301529c9b505050505050505050505050565b6000806040838503121561212f57600080fd5b823591506020830135801515811461214657600080fd5b809150509250929050565b6001600160a01b038b168152610140602082018190526000906121768382018d611f49565b9050828103604084015261218a818c611f49565b9050828103606084015261219e818b611f49565b905082810360808401526121b2818a611f49565b905082810360a08401526121c68189611f49565b905082810360c08401526121da8188611f49565b9150508460e08301528315156101008301526121fb61012083018415159052565b9b9a5050505050505050505050565b6020808252602d908201527f4c616e6452656769737472793a204e6f7420617574686f72697a656420746f2060408201526c1c9959da5cdd195c881b185b99609a1b606082015260800190565b600181811c9082168061226b57607f821691505b60208210810361228b57634e487b7160e01b600052602260045260246000fd5b50919050565b601f8211156109d357600081815260208120601f850160051c810160208610156122b85750805b601f850160051c820191505b818110156122d7578281556001016122c4565b505050505050565b815167ffffffffffffffff8111156122f9576122f9611d38565b61230d816123078454612257565b84612291565b602080601f831160018114612342576000841561232a5750858301515b600019600386901b1c1916600185901b1785556122d7565b600085815260208120601f198616915b8281101561237157888601518255948401946001909101908401612352565b508582101561238f5787850151600019600388901b60f8161c191681555b5050505050600190811b01905550565b602081526000611efd6020830184611f49565b634e487b7160e01b600052601160045260246000fd5b6000600182016123da576123da6123b2565b5060010190565b60208082526027908201527f4c616e6452656769737472793a20496e76616c696420726567697374726172206040820152666164647265737360c81b606082015260800190565b60208082526021908201527f4c616e6452656769737472793a204c616e6420646f6573206e6f7420657869736040820152601d60fa1b606082015260800190565b8181038181111561247c5761247c6123b2565b92915050565b634e487b7160e01b600052603260045260246000fd5b634e487b7160e01b600052603160045260246000fdfe52656769737472617220617574686f72697a656420746f207265676973746572206c616e64a2646970667358221220a8e323a69ca834307aaecc5ca13ff44af1a0c23e365452b47257079b85d6d04e64736f6c63430008130033",
  "linkReferences": {},
  "deployedLinkReferences": {}
}